:100000000C9471010C942F0B0C94080B0C94DE07CC
:100010000C947B070C940A070C94560B0C949901D2
:100020000C9499010C948D0C0C9499010C949901E9
:100030000C9499010C94B70C0C9499010C949901AF
:100040000C94BE0A0C9499010C94E0090C94BA0922
:100050000C9499010C9499010C9499010C949901B8
:100060000C9499010C9499010A00446576696365C2
:1000700020496E666F3A2000202D207265616479F8
:1000800000002E0206030D04E905CA070C0B060D3D
:10009000210E650F6A10C811931203153417031847
:1000A0001819161B43215623E9242A251F26112936
:1000B000592C812D352E093E033100434320696EB2
:1000C0006974000A00496E69742053746F72616725
:1000D000653A20000A0B0C011221220000000023C7
:1000E00000260029000001020304050607000102A2
:1000F00003040500010203040504040404040404C9
:1001000004020202020202030303030303010204C6
:100110000810204080010204081020010204081089
:100120002041736B53696E2B2B2056322E312E35A6
:100130002028417072203234203230313820313260
:100140003A32323A33372900300030300030303024
:10015000003030303000303030303000303030302F
:10016000303000303030303030300020000A002095
:100170002D20002000200020002000200020004230
:1001800061743A20002920253A20002B48756D69BA
:1001900064697479202823002920563A20002B53C3
:1001A000656E736F722020202823002A4C4F57560B
:1001B000616C75653A2020002A4849474856616CB1
:1001C00075653A2000436F6E666967206368616EEB
:1001D000676564204C69737431000A000A000000EE
:1001E00000000000000002140505000000000201EC
:1001F0000A010000000000000000000000000000F4
:10020000000000000000060305010101010A0601CB
:1002100001010501050A0206020200000000524524
:100220005345540000000000240027002A0000006D
:100230000000250028002B0000000008000201003B
:100240000003040700000000000000000A002D3E2B
:100250002000007761697441636B3A20003C2D20D7
:10026000000A002324252600206C6F6E6772656CDF
:10027000656173656400206C6F6E6770726573737F
:10028000656400206465626F756E6365002070723E
:100290006573736564002072656C656173656400E5
:1002A000424F4F544C4F414445520069676E6F7244
:1002B000652000484156452044415441002D3E20D0
:1002C000000A00F311014A504341504D30303031A3
:1002D00000F311107001014261743A200000F72010
:1002E000EF2011241FBECFEFD8E0DEBFCDBF12E05C
:1002F000A0E0B1E0ECE8FBE402C005900D92A83468
:10030000B107D9F724E0A8E4B2E001C01D92A334FC
:10031000B207E1F711E0C0E7D1E004C02197FE0188
:100320000E946B24CF36D107C9F70E94221B0C9480
:10033000B9250C940000FC01118608950C94062543
:100340000C9406250C9406250C9406250C94062581
:100350000C9406258FE393E00E9482196FE373E00B
:100360008EE293E00C94B90BCF93DF93EC01CB01B9
:100370004A855B856C857D854D835E836F83788739
:10038000BE010E94B90BE881F9810680F781E02D5A
:10039000CE0109958987DF91CF9108950F931F931F
:1003A000CF938C0161E20E94281AC82F62E2C80133
:1003B0000E94281A2C2F30E0322F2227A901480F43
:1003C000511DCA01CF911F910F91089520E731E08F
:1003D000FC01318320830C944C0FCF93DF93EC010D
:1003E0000E94E601CE01DF91CF910C9406250F9378
:1003F0001F93CF938C0165E20E943E1AC82F66E2DC
:10040000C8010E943E1A2C2F30E0322F2227A9016A
:10041000480F511DCA01CF911F910F9108950F935D
:100420001F93CF938C0163E20E943E1AC82F64E2AF
:10043000C8010E943E1A2C2F30E0322F2227A9013A
:10044000480F511DCA01CF911F910F910895089532
:1004500008950895682F70E080E090E04AE00C94E1
:10046000FD180C94EB180C944919BC0180E090E045
:100470004AE00E94FD188CED91E00C943302CF927B
:10048000DF92EF92FF920F931F93CF93DF938C0134
:100490008AED91E00E943102E801EA9662E1CE0124
:1004A0000E94281A0E942A0281E692E00E943302EA
:1004B0008BEE91E00E94310261E0CE010E94281A89
:1004C000C12CD12C7601C394811103C0C12CD12C35
:1004D00076014AE0C701B6010E94FD188AED91E05D
:1004E0000E94330262E1CE010E94281AD8011296BE
:1004F000ED91FC91139785A38CEF91E00E9431025E
:10050000CE010E94CE01DF91CF911F910F91FF90FC
:10051000EF90DF90CF900C9435021F93CF93DF9331
:100520001F92CDB7DEB780917C00807380937C00F2
:1005300080917C00806480937C0080917C008E6040
:1005400080937C002FE78BE898E02150804090401A
:10055000E1F700C0000080917A00806480937A0007
:1005600080917A0086FDFCCF6091780070917900CF
:1005700085EF9BE20E944324162F8FE791E0798359
:100580000E943302812F7981972F0E943502812F9B
:100590000F90DF91CF911F9108950F931F93CF93E9
:1005A000DF9300D0CDB7DEB78C0185EC91E00E94DF
:1005B000C71188EB91E00E943302F8018685978588
:1005C0009A838983CE0101960E940F020E94350210
:1005D0008BEA91E00E943302F801868597859A8321
:1005E0008983CE0101960E94F7010E9435020F9087
:1005F0000F90DF91CF911F910F9108950895E3E639
:10060000F2E090E02491281731F09F5F319694300A
:10061000C9F78FEF0895892F08950F931F93CF93F4
:10062000DF9300D0CDB7DEB78C01862F4A830E94BE
:10063000FF024A818F3F71F0F80160817181680F7C
:10064000711D498341E050E0CE0101960E949E2237
:1006500081E001C080E00F900F90DF91CF911F915A
:100660000F910895E4EDF0E090E02491281731F027
:100670009F5F31969730C9F78FEF0895892F0895BE
:10068000862728E0BC0176956795AC014170552717
:1006900080FF02C041E050EACA0186279727215017
:1006A00089F70895DC0150E0681B790B9D01281B38
:1006B000390B2417350734F4FD01E60FF71FE491D9
:1006C000ED93F4CF089508950895FC0110821182EE
:1006D0001282138216821582148211861086178266
:1006E000128613860895FC018081811109C08181E1
:1006F000811106C081E09281911103C080E00895CC
:1007000081E00895DC01FB019C91808198130BC06E
:1007100011969C9111978181981305C081E01296E2
:100720002C919281291380E008954F925F926F92ED
:100730007F928F929F92AF92BF92CF92DF92EF9271
:10074000FF920F931F93CF93DF93CDB7DEB7289718
:100750000FB6F894DEBF0FBECDBF8C0161E085E01F
:100760000E943B0A2FEF84E39CE0215080409040A0
:10077000E1F700C000003AE0D32EE12CF12C8EE02E
:100780000E94A70AE80EF91EAFE1BEE41197F1F747
:1007900000C00000DA94D110F2CFC7016AE070E027
:1007A0000E9443247B0160E085E00E943B0A8EE9C1
:1007B00091E00E943302F80185850E942A0288E9AF
:1007C00091E00E943302C7010E943502D8011E96B3
:1007D0008D919C911F979A838983CE0101960E94E7
:1007E0000F025C01F801868597859E838D83CE017B
:1007F00005960E94F701A81AB90AD8011E968D9194
:100800009C911F979A838983CE0101960E94F701DC
:10081000E81AF90A24E62E9DC0012F9D900D11249F
:10082000B5010E944324653610F4261B01C020E068
:10083000F80124AF8BE891E00E943302D8011D96A5
:100840008C910E942A0285E891E00E943302F8010F
:1008500084AD0E942A0281E692E00E943302D80110
:100860001996ED91FC911A97C680C394C682199689
:10087000ED91FC911A97848195810E94CE01009799
:1008800011F48EE190E02CE3289FB001299F700DB8
:10089000112480E090E00E9448232EEA37E441E6EC
:1008A0005FE30E94AE2320E030E048EC52E40E9477
:1008B000AE230E941923F80165837683878390878E
:1008C000B8018EE293E00E94B90BD8011996ED9021
:1008D000FC901A97D7011296ED91FC911397D801CD
:1008E000DC969C91DC971D968C9130A125A1321746
:1008F00010F420E8D22E2DE0F801208B20E7238B86
:1009000024E0228BD28EC18A138E948F858F58015A
:10091000F0E1AF0EB11C412CC12CD12C480129E0D3
:10092000820E911C380184E1680E711C4C2DB401BB
:10093000CE0105960E943C11CE0105960E947303DC
:10094000882309F48DC0512C452DB401CE010196A8
:100950000E943C11BE016F5F7F4FCE0105960E9441
:100960008203811106C0539496E05912EDCF4FEFE8
:1009700001C0452D50E04C155D050CF471C01B8283
:100980001A821982CE0101960E94790DBE016F5F15
:100990007F4FCE0105960E948203882309F442C04E
:1009A000C3010E94790DD80154968C9154975796A3
:1009B0008C93579755968C91559758968C9358973A
:1009C00056968C91569759968C9364E273E0C301C6
:1009D0000E948203882329F0F80182898F7D846038
:1009E000828BD80152968C91529785FF11C08F7DD2
:1009F00052968C93D701ED91FC910680F781E02D02
:100A0000B501C7010995F80182898062828B28C0EF
:100A1000D701ED91FC910680F781E02DB501C7016A
:100A200009951EC0AE014B5F5F4FB401CE01019628
:100A30000E94541189819A810E94A80DF80192891F
:100A400080FF03C09061928B02C09F7E928BAE01AB
:100A50004B5F5F4FB501C7010E9455124424439478
:100A6000BFEFCB1ADB0AE6E0CE16D10409F05ECF69
:100A7000411010C0D70114966D917C911597CE014D
:100A800001960E941911AE014F5F5F4FB501C7017A
:100A90000E94551228960FB6F894DEBF0FBECDBF48
:100AA000DF91CF911F910F91FF90EF90DF90CF904A
:100AB000BF90AF909F908F907F906F905F904F907E
:100AC0000895FC013381FB012381321302C00C9491
:100AD000820380E00895CF93DF9300D000D0CDB79C
:100AE000DEB7FC0180899485998395859A839685E4
:100AF0009B838C83882359F0BF01645F7F4FCE01B5
:100B000001960E946105811102C082E001C081E06E
:100B10000F900F900F900F90DF91CF910895FC01EF
:100B20009FB7F894718360839FBF08952FB7F8949F
:100B3000FC01808191812FBF0895CF92DF92EF92C7
:100B4000FF920F931F93CF93DF9300D000D0CDB7C8
:100B5000DEB78C018EE293E049835A836B837C83FA
:100B60000E94960549815A816B817C81009719F01A
:100B7000FC01329702C0E0E0F0E0C12CD12C7601FC
:100B80003097F9F085819681A781B085C80ED91E6E
:100B9000EA1EFB1EE017F107B9F0CF010296498368
:100BA0005A836B837C830E94960549815A816B81AD
:100BB0007C81009719F0FC013297E2CFE0E0F0E091
:100BC000DFCFC12CD12C7601C416D506E606F70678
:100BD00020F581E0F8018187C80149835A836B833E
:100BE0007C830E94821949815A816B817C81F80142
:100BF0004583568367837087B8018EE293E00F9038
:100C00000F900F900F90DF91CF911F910F91FF9058
:100C1000EF90DF90CF900C94B90B0F900F900F9046
:100C20000F90DF91CF911F910F91FF90EF90DF9088
:100C3000CF900895EF92FF920F931F93CF93DF937E
:100C4000EC01FFB6F8940E9496058C01892B61F0A7
:100C5000EFB6F894CE010E9496050E949605BC015D
:100C6000CE010E948F05EFBEFFBEC801DF91CF917C
:100C70001F910F91FF90EF900895CF92DF92EF9226
:100C8000FF926B017C0180E1C816D104E104F104FC
:100C900018F483E691E036C08FEFC816D104E10462
:100CA000F10409F018F48CE591E02CC0C11480E146
:100CB000D806E104F10418F486E591E023C0C114DC
:100CC000D10481E0E806F10418F481E591E01AC04E
:100CD000C114D10480E1E806F10418F48DE491E038
:100CE00011C0C114D104E10481E0F80618F48AE4CB
:100CF00091E008C0C114D104E10480E1F80620F4B9
:100D000088E491E00E94491940E1C701B601FF90D3
:100D1000EF90DF90CF900C94FD18CF93C82F8031C7
:100D200018F480E30E943E196C2F70E080E090E0A0
:100D300040E1CF910C94FD18EF92FF920F931F9317
:100D4000CF93DF93EC0188810E948D068DE791E0BF
:100D50000E94330289810E948D068BE791E00E94F8
:100D600033028A810E948D0689E791E00E94330256
:100D70008B810E948D0687E791E00E9433028C816F
:100D80000E948D068D810E948D068E810E948D06A7
:100D900085E791E00E9433028F810E948D0688854D
:100DA0000E948D0689850E948D0683E791E00E944E
:100DB0003302088109502A967E0110E0C7018C1B7E
:100DC0009D0B8017910754F4F70181917F010E94D8
:100DD0008D068BE691E00E943302F0CF8FE691E022
:100DE0000E9433022FB7F89460917E0270917F02C7
:100DF00080918002909181022FBF4AE00E94FD18ED
:100E00008DE691E0DF91CF911F910F91FF90EF90D0
:100E10000C9433021F920F920FB60F9211242F934E
:100E20003F934F935F936F937F938F939F93AF9372
:100E3000BF93CF93EF93FF9329B1C0914A02909152
:100E4000780280917502322F309583239223892B6B
:100E500090916D00C227C923C82320934A02CC2356
:100E6000C1F1C0FF05C0E0914B02F0914C02099521
:100E7000C1FF05C0E0914D02F0914E020995C2FFFD
:100E800005C0E0914F02F09150020995C3FF05C0E3
:100E9000E0915102F09152020995C4FF05C0E09122
:100EA0005302F09154020995C5FF05C0E091550227
:100EB000F09156020995C6FF05C0E0915702F091E6
:100EC00058020995C7FF05C0E0915902F0915A02F6
:100ED0000995FF91EF91CF91BF91AF919F918F9124
:100EE0007F916F915F914F913F912F910F900FBE26
:100EF0000F901F9018951F920F920FB60F9211240A
:100F00002F933F934F935F936F937F938F939F9311
:100F1000AF93BF93CF93EF93FF9326B1C0915B0242
:100F20009091790280917602322F3095832392231B
:100F3000892B90916C00C227C923C82320935B02A0
:100F4000CC2351F1C0FF05C0E0915C02F0915D023D
:100F50000995C1FF05C0E0915E02F0915F0209951D
:100F6000C2FF05C0E0916002F09161020995C3FFE4
:100F700005C0E0916202F09163020995C4FF05C0CB
:100F8000E0916402F09165020995C5FF05C0E0910A
:100F90006602F09167020995FF91EF91CF91BF91A1
:100FA000AF919F918F917F916F915F914F913F9101
:100FB0002F910F900FBE0F901F9018951F920F92B8
:100FC0000FB60F9211242F933F934F935F936F931C
:100FD0007F938F939F93AF93BF93CF93EF93FF93A1
:100FE00023B1C091680290917A0280917702322FEA
:100FF000309583239223892B90916B00C227C923BC
:10100000C82320936802CC2351F1C0FF05C0E091B2
:101010006902F0916A020995C1FF05C0E0916B0277
:10102000F0916C020995C2FF05C0E0916D02F0914C
:101030006E020995C3FF05C0E0916F02F091700246
:101040000995C4FF05C0E0917102F0917202099503
:10105000C5FF05C0E0917302F09174020995FF91FC
:10106000EF91CF91BF91AF919F918F917F916F91B0
:101070005F914F913F912F910F900FBE0F901F9056
:101080001895CF92DF92EF92FF920F931F93CF9319
:10109000DF936C017A018B01C0E0D0E0CE15DF0553
:1010A00089F0D8016D918D01D601ED91FC910190EF
:1010B000F081E02DC6010995892B11F47E0102C053
:1010C0002196ECCFC701DF91CF911F910F91FF9037
:1010D000EF90DF90CF900895089580E090E008951C
:1010E000FC01538D448D252F30E0842F90E0821B2E
:1010F000930B541710F0CF96089501970895FC01B3
:10110000918D828D981761F0828DDF01A80FB11D3E
:101110005D968C91928D9F5F9F73928F90E0089562
:101120008FEF9FEF0895FC01918D828D981731F01C
:10113000828DE80FF11D858D90E008958FEF9FEF70
:101140000895FC01918D228D892F90E0805C9F4F46
:10115000821B91098F739927089587E892E00E9476
:10116000A10821E0892B09F420E0822F0895FC01D9
:10117000848DDF01A80FB11DA35ABF4F2C91848D20
:1011800090E001968F739927848FA689B7892C9355
:10119000A089B1898C9180648C93938D848D9813F0
:1011A00006C00288F389E02D80818F7D80830895B9
:1011B000EF92FF920F931F93CF93DF93EC0181E0A7
:1011C000888F9B8D8C8D981305C0E889F989808163
:1011D00085FD24C0F62E0B8D10E00F5F1F4F0F739F
:1011E0001127E02E8C8DE8120CC00FB607FCFACF49
:1011F000E889F989808185FFF5CFCE010E94B70883
:10120000F1CF8B8DFE01E80FF11DE35AFF4FF08205
:101210000B8FEA89FB898081806207C0EE89FF8994
:101220006083E889F98980818064808381E090E02F
:10123000DF91CF911F910F91FF90EF900895CF9381
:10124000DF93EC01888D8823C9F0EA89FB898081CE
:1012500085FD05C0A889B9898C9186FD0FC00FB6A0
:1012600007FCF5CF808185FFF2CFA889B9898C91E1
:1012700085FFEDCFCE010E94B708E7CFDF91CF9178
:10128000089580E090E0892B29F00E94AD0881113B
:101290000C9400000895833081F028F4813099F097
:1012A0008230A1F008958730A9F08830B9F08430F9
:1012B000D1F4809180008F7D03C0809180008F7772
:1012C00080938000089584B58F7702C084B58F7DA8
:1012D00084BD08958091B0008F7703C08091B000E5
:1012E0008F7D8093B000089508950E949E25FF92FF
:1012F0000F931F93CF93DF93EC018B01FFB6F8940C
:101300000E949605BC01C8010E948F05B801CE015C
:101310000E948F05FFBEDF91CF911F910F91FF902B
:1013200008950C9432031F93CF93DF93EC011FB702
:10133000F89499898985981720F4CE010E942C1081
:1013400014C0198A9A859923C1F38A898F5F8A8B81
:10135000891798F3CE010E94221048E050E06EED0C
:1013600071E0CE0109960E9485221FBFDF91CF91C7
:101370001F9108951F920F920FB60F9211242F9371
:101380003F934F935F936F937F938F939F93AF930D
:10139000BF93EF93FF9387E892E00E94B708FF9115
:1013A000EF91BF91AF919F918F917F916F915F91DD
:1013B0004F913F912F910F900FBE0F901F90189556
:1013C0001F920F920FB60F9211242F938F939F931A
:1013D000EF93FF93E0919702F09198028081E09162
:1013E0009D02F0919E0282FD12C090818091A00228
:1013F0008F5F8F732091A102821751F0E091A002BC
:10140000F0E0E957FD4F958F8093A00201C08081E5
:10141000FF91EF919F918F912F910F900FBE0F90A1
:101420001F901895CF93DF93282F30E0F901E85CE7
:10143000FD4F8491F901E35FFE4FD491F901E7502C
:10144000FF4FC491CC2391F081110E944B09EC2FE6
:10145000F0E0EE0FFF1FE552FF4FA591B491EC9124
:10146000ED2381E090E021F480E002C080E090E094
:10147000DF91CF9108951F93CF93DF93282F30E012
:10148000F901E85CFD4F8491F901E35FFE4FD491CF
:10149000F901E750FF4FC491CC23C9F0162F8111F9
:1014A0000E944B09EC2FF0E0EE0FFF1FE25DFD4FB5
:1014B000A591B4918FB7F894111105C09C91ED2FAF
:1014C000E095E92302C0EC91ED2BEC938FBFDF9107
:1014D000CF911F910895CF93DF9390E0FC01E35FDC
:1014E000FE4F2491FC01E750FF4F8491882361F166
:1014F00090E0880F991FFC01EC5DFD4FC591D491E0
:10150000FC01E25DFD4FA591B491611109C09FB747
:10151000F8948881209582238883EC912E230BC038
:10152000623061F49FB7F8943881822F80958323CD
:101530008883EC912E2B2C939FBF06C08FB7F89415
:10154000E8812E2B28838FBFDF91CF9108958E30B5
:1015500008F08E508770806480937C0080917A00C0
:10156000806480937A0080917A0086FDFCCF809120
:1015700078002091790090E0922B08951F920F92AD
:101580000FB60F9211242F933F938F939F93AF9396
:10159000BF9380917E0290917F02A0918002B091D2
:1015A00081023091860226E0230F2D3720F4029627
:1015B000A11DB11D05C029E8230F0396A11DB11D72
:1015C0002093860280937E0290937F02A0938002F4
:1015D000B09381028091820290918302A091840253
:1015E000B09185020196A11DB11D80938202909356
:1015F0008302A0938402B0938502BF91AF919F9123
:101600008F913F912F910F900FBE0F901F901895C3
:101610001F920F920FB60F9211242F933F934F9367
:101620005F936F937F938F939F93AF93BF93EF934A
:10163000FF93E0910201F09103010995FF91EF9171
:10164000BF91AF919F918F917F916F915F914F91DA
:101650003F912F910F900FBE0F901F9018951F92E2
:101660000F920FB60F9211242F933F934F935F93D6
:101670006F937F938F939F93AF93BF93EF93FF935A
:10168000E0910001F09101010995FF91EF91BF9167
:10169000AF919F918F917F916F915F914F913F910A
:1016A0002F910F900FBE0F901F9018951F920F92C1
:1016B0000FB60F9211248F930FB6F894A8958091CE
:1016C0006000886180936000109260000FBE8F916F
:1016D0000F900FBE0F901F9018954115510529F4DA
:1016E000EAE7F0E080818F7780836A307105A9F0A6
:1016F00063FD02C088E001C088E26770682B88E162
:101700000FB6F894A895809360000FBE60936000B8
:10171000E0E6F0E0808180648083232BA1F483B72E
:10172000817F846083BFF89483B7816083BF85B76E
:10173000806685BF8F7D85BF7894889583B78E7FBF
:1017400083BF78940EC083B7817F846083BFF89491
:1017500083B7816083BF7894889583B78E7F83BF7A
:101760007894452B29F4EAE7F0E080818068808353
:1017700008954F925F926F927F92BF92CF92DF92C5
:10178000EF92FF920F931F93CF93DF938B01FB0197
:101790004581568167817085452B462B472B09F47F
:1017A0005AC0BFB6F8947C010E949605009719F0C4
:1017B000EC01229702C0C0E0D0E02097E1F04D801C
:1017C0005E806F807884F8014581568167817085DD
:1017D000CE010296441655066606770650F4441963
:1017E000550966097709F801458356836783708731
:1017F000DACFBC0102C060E070E06801F2E0CF0E19
:10180000D11CC6010E948F05B601C7010E948F0539
:10181000209779F4BFBEDF91CF911F910F91FF9078
:10182000EF90DF90CF90BF907F906F905F904F9040
:1018300008958D819E81AF81B885F80145815681DB
:1018400067817085841B950BA60BB70B8D839E83D8
:10185000AF83B887DFCFB8016E5F7F4F0296DF910D
:10186000CF911F910F91FF90EF90DF90CF90BF909D
:101870007F906F905F904F900C947709CF92DF929A
:10188000FF920F931F93CF93DF938C01FFB6F894D1
:101890000E9496050097B9F1EC012297A1F18D8184
:1018A0009E81AF81B8850197A109B1098D839E837F
:1018B000AF83B887680182E0C80ED11C8D819E81FC
:1018C000AF81B885892B8A2B8B2BE9F4C8010E9444
:1018D0001A068C81882349F0E881F9810190F08112
:1018E000E02DB801CE01099506C0BE016E5F7F4FA5
:1018F000C6010E947709C8010E949605009719F059
:10190000EC012297D9F6FFBEC801DF91CF911F915C
:101910000F91FF90DF90CF9008951F920F920FB616
:101920000F9211242F933F934F935F936F937F9365
:101930008F939F93AF93BF93EF93FF93E9E2F3E00D
:1019400084818F5F8483CF010E943E0CFF91EF91D1
:10195000BF91AF919F918F917F916F915F914F91C7
:101960003F912F910F900FBE0F901F9018951F92CF
:101970000F920FB60F9211242F933F934F935F93C3
:101980006F937F938F939F93AF93BF93CF93DF9387
:10199000EF93FF938EE293E00E943E0C87E293E088
:1019A0000E949605EC01892B79F18E819F81A88593
:1019B000B9850196A11DB11D8E839F83A887B98724
:1019C0004A815B816C817D81811528E09207A105A8
:1019D000B10579F481E0452B462B472B09F480E0D3
:1019E000682F8A850E943B0A1E821F8218861986EC
:1019F00009C084179507A607B70721F460E08A8518
:101A00000E943B0ACE01CCCFFF91EF91DF91CF91A5
:101A1000BF91AF919F918F917F916F915F914F9106
:101A20003F912F910F900FBE0F901F901895663029
:101A300050F4FC01808191810496F6E06F9F800D47
:101A4000911D1124089580E090E008958EBD0DB49D
:101A500007FEFDCF8EB5089561E08AE00C943B0A45
:101A60008CE00E94120A8111FBCF089560E08AE0A9
:101A70000C943B0ACF93DF931F92CDB7DEB78983D7
:101A80000E94360D0E94300D89810E94260D8983A7
:101A90000E942C0D89810F90DF91CF91089586E3EC
:101AA0000E943A0D8DE30E943A0D8AE30C943A0DA0
:101AB000CF93DF9300D0CDB7DEB769838A830E94CE
:101AC000360D0E94300D69818A81862B0E94260D79
:101AD00080E00E94260D8A830E942C0D8A810F903F
:101AE0000F90DF91CF9108954AE062EF7FE70C9469
:101AF000520343E06CEF7FE70C945203EF92FF92A6
:101B00000F931F93CF93DF931F92CDB7DEB77C0166
:101B1000E60EF71E8C010E151F0559F0198241E0E3
:101B200050E0B801CE0101960E949E220F5F1F4F28
:101B3000F2CF81E00F90DF91CF911F910F91FF9035
:101B4000EF900895EFE6F0E0808181608083089552
:101B5000CF93DF931F92CDB7DEB7198241E050E0FB
:101B6000BC01CE0101960E948E2289810F90DF91E7
:101B7000CF910895EF92FF921F93CF93DF9300D000
:101B800000D0CDB7DEB77C0110E0412FB701CE0108
:101B900001960E943C11CE0101960E947303882396
:101BA00021F01F5F163089F71FEF812F0F900F90E4
:101BB0000F900F90DF91CF911F91FF90EF900895BC
:101BC000AF92BF92CF92DF92FF920F931F93CF936A
:101BD000DF93CDB7DEB729970FB6F894DEBF0FBEFF
:101BE000CDBFFC0121110DC082AD93AD9A838983D5
:101BF00087E08B8385E39FE09D838C8381E999E077
:101C000061C0662319F081AD861740F41A821982EB
:101C10001B821D821C821F821E8256C004AD15AD20
:101C2000213071F4F801868597859A83898384E051
:101C30008B838BE29FE09D838C8380E290E142C0A6
:101C40006A012330B1F0243009F7B801675F7F4F94
:101C5000CE0108960E945411888599859A838983BC
:101C600081E08B8381E29FE09D838C838BE19FE009
:101C700029C0580189E0A80EB11CF12C4F2DB501E7
:101C8000CE0101960E943C11B601CE0101960E9440
:101C90006105882339F06F2DC8010E960E94170D3B
:101CA000049606C0F394F6E0FF12E8CF80E090E0DF
:101CB0009A83898381E08B8389E29FE09D838C8373
:101CC00087E29FE09F838E8329813A814B815C81EB
:101CD0006D817E818F8190E029960FB6F894DEBFEA
:101CE0000FBECDBFDF91CF911F910F91FF90DF907D
:101CF000CF90BF90AF900895AF92BF92CF92DF92F6
:101D0000EF92FF921F93CF93DF9300D000D0CDB717
:101D1000DEB77C016B0110E05C0185E0A80EB11C10
:101D2000412FB701CE0101960E943C11B601CE01B0
:101D300001960E946105882379F01B821A8219821C
:101D40001C82612FC5010E94170D44E050E0BC01C8
:101D5000CE0101960E949E221F5F163009F781E096
:101D60000F900F900F900F90DF91CF911F91FF90E8
:101D7000EF90DF90CF90BF90AF9008950F931F9397
:101D8000CF93DF93EC018B018AE18B871E861D8642
:101D90004C871E8A8FA998ADFC01719624913197CA
:101DA00084918D8B2AA342E060EF7FE7CE014696B7
:101DB0000E945203CE0148960E94740D89AD8BA3F8
:101DC0008FA998ADBC016E5E7F4F42E050E0CE011E
:101DD00084960E948522BE01655F7F4FA801CE01D7
:101DE000DF91CF911F910F910C945512CF93DF93F8
:101DF000EC018EE192E00E94C71188E10E9432035B
:101E00008F3F59F464E070E080E090E00E947E0D26
:101E1000E0E0F0E0DF91CF9109942AAD3BADA9015C
:101E2000480F511DCA010E94A80D80FFEBCFDF9122
:101E3000CF9108950895813011F08FEF089580E0DB
:101E40000895882311F08FEF089581E008958FEFB2
:101E500008958FEF0895843030F4E82FF0E0ED59C5
:101E6000FD4F849108958FEF0895873030F4E82F67
:101E7000F0E0EC52FF4F849108958FEF0895E091C8
:101E80004802F09149028685811102C081E0858770
:101E9000089580E0089508950F931F93CF93DF93E3
:101EA00024E631E0FC01318320838C010A5B1F4F63
:101EB00079F0EC01CD57DF4FC017D10749F0ED970E
:101EC000E881F9810280F381E02DCE010995F4CFFC
:101ED000DF91CF911F910F9108951F93CF93DF93BF
:101EE000EC01FB012985922F9770943061F028F462
:101EF000923039F0933079F030C0953061F09630FF
:101F000061F511E01BC023FD0CC04B855C8545507D
:101F1000510913E01EC023FD20C04B855C8515E0F0
:101F200018C045E050E012E060E070E04D835E8351
:101F30006F837887BE01CF010E94B90BE881F981D8
:101F40000680F781E02D612FCE01DF91CF911F91A7
:101F500009944115510541F7F1CFDF91CF911F91C0
:101F60000895EF92FF920F931F93CF93DC01199680
:101F70000D911C911A97F80182850E94120AD801CE
:101F80001996CC911997C3FBEE24E0F8F12C9C0133
:101F90003327E216F306E1F180FBC3F91996CC93DF
:101FA000C770C33029F0C53019F0C130D9F408C06A
:101FB000F801818583FF16C0C33041F1C6E001C03E
:101FC000C4E0C8010E94821985E090E0A0E0B0E082
:101FD000F80185839683A783B087B8018EE293E0EA
:101FE0000E94B90BD80119968C9119978770C81760
:101FF00079F0ED91FC910680F781E02D6C2FC801FE
:10200000CF911F910F91FF90EF900994C2E0D9CF2B
:10201000CF911F910F91FF90EF9008950C9406259A
:102020000C9406250C9406250C940625CF93DF937B
:10203000EC010E944C0FCE01DF91CF910C9406254C
:102040000C94FF02FC018489882311F061E001C037
:1020500060E083890C943B0AEF92FF921F93CF9329
:10206000DF93EC017B01998911E0190F198BFE01B7
:10207000E90FF11D238530E0A4E6B0E00E940A23B9
:102080002AE030E040E050E00E94E8222D833E83C9
:102090004F83588710FF0AC08C89882311F060E0B5
:1020A00001C061E08B890E943B0A03C0CE010E94FF
:1020B0002210BE01C701DF91CF911F91FF90EF90D9
:1020C0000C94B90BAF92BF92CF92DF92EF92FF9236
:1020D0000F931F93CF93DF93EC018D85882309F431
:1020E00088C07B011D866E0181E1C80ED11C60ECA9
:1020F0008BE30E94580D18160CF043C060E88FE384
:102100000E94580D182F8A3288F50E94360D0E94C1
:10211000300D8FEF0E94260D0C2D56018A2D801B4D
:10212000811738F480E00E94260DF50181935F014C
:10213000F5CF0E942C0D60E88FE30E94580D87FDBB
:1021400080958B878B858695885B8B8760E88FE38E
:102150000E94580D982F9F779C8787FD13C08EE0B3
:1021600092E00E94310288E690E009C089E192E0A5
:102170000E943102812F0E942A0281E692E00E9491
:10218000330210E08AE30E943A0D8BE791E0019759
:10219000F1F700C000000E944F0D84E30E943A0D49
:1021A000112319F1188B898996E79827998B91E06B
:1021B000412F50E0BA0161507109292F30E0F6013A
:1021C000E20FF31F261737073CF420818452822741
:1021D00080839F5F822FF1CF90818A8989278083B6
:1021E000B601C70101960E94B025F7011083188A35
:1021F0008081DF91CF911F910F91FF90EF90DF9041
:10220000CF90BF90AF900895CF93DF93EC01CB01B7
:10221000463018F080E090E005C0642F05960E94DB
:10222000170D049699838883CE01DF91CF9108958D
:102230000895EF92FF920F931F93CF93DF93EC01DA
:102240008B016CE0C8010E94281AF82E6BE0C801CF
:102250000E94281AE82E6AE0C8010E94281A888382
:10226000E982FA82CE01DF91CF911F910F91FF9009
:10227000EF90089508950895CF93DF93EC01CB017B
:102280001A82198218821B82642F05960E94170DEC
:10229000009731F044E050E0BC01CE010E948E2254
:1022A000CE01DF91CF910895AF92BF92CF92DF928E
:1022B000EF92FF921F93CF93DF9300D000D0CDB762
:1022C000DEB77C016B015A0110E0412FB601CE014F
:1022D00001960E943C11B501CE0101960E94610554
:1022E000882339F0612FC60105960E94170D0596C7
:1022F00005C01F5F163049F780E090E0F701918339
:102300008083C7010F900F900F900F90DF91CF91B6
:102310001F91FF90EF90DF90CF90BF90AF90089506
:10232000EF92FF920F931F93CF93DF93EC018B01FA
:102330007C018FEFE81AF80AC7010E948219C701D1
:102340000E942210B80183E0660F771F8A95E1F79B
:1023500062527E4F48E050E0CE010A960E948522EC
:102360008A85882369F01A8A1B8A6EE273E0C701A6
:10237000DF91CF911F910F91FF90EF900C942C1053
:10238000DF91CF911F910F91FF90EF9008950E94E0
:1023900033028CE492E00C9433020F931F93CF939B
:1023A0008C01C62F643091F038F4623061F06330F4
:1023B00099F48DE892E012C0653059F0663061F40E
:1023C00088E692E00BC086E992E008C083E892E0DC
:1023D00005C086E792E002C087E692E00E94C7113E
:1023E000C770F8019185987FC92BC187CF911F9144
:1023F0000F9108950F931F93CF93DF9300D000D0D8
:102400001F92CDB7DEB78C01362FFC0121852770D6
:102410002C833D830E94CD113D812C81323049F5C2
:10242000F801008D118DF80146814F5F468364816C
:102430007581CE0101964C830E9419114C81BE0119
:102440006F5F7F4FC8010E94BE0EF80182819381A9
:1024500061E070E001960E949011F8018281938101
:1024600040ED57E060E070E08C599F4F0E949D0561
:1024700012C0353081F4F801808D918D253019F42A
:102480000E94F60E08C0FC018281938167E070E033
:1024900001960E9490110F900F900F900F900F9047
:1024A000DF91CF911F910F9108952F923F924F92FC
:1024B0005F926F927F928F929F92AF92BF92CF92D4
:1024C000DF92EF92FF920F931F93CF93DF93CDB7DD
:1024D000DEB7E0970FB6F894DEBF0FBECDBF5C014C
:1024E0008B01FA018081DB0117968C93179781810C
:1024F00018968C931897828119968C9364E273E0F6
:10250000CA010E948203882329F0F80182818F7D0D
:1025100084608283C80104960E94790DD8011296C6
:102520008C911297806812968C93F5018281938129
:1025300062E070E001960E94901136E0C32EC8015F
:1025400001969EA78DA74AE0242E312C412C512CB8
:10255000380197E0690E711CD80112968C91129780
:1025600080718CA7F501E280F3804701FBE38F0EB9
:10257000911C4C9150E06DA57EA5C4010E94B02530
:10258000D8018C91F70182AF43ADF6E74F27D70111
:10259000DB964C93DB97DC965C9161E090E00197D1
:1025A000262F30E0F401E20FF31F2817390734F427
:1025B00044522081422740836F5FF2CF80815827A9
:1025C0005083F701F2ADFBA7D701D3968C918823F6
:1025D00029F022E02A95F1F700C0F6CFF70127A6EF
:1025E00030AA41AA52AA21E023ABB701665D7F4F12
:1025F0008EE293E00E94B90BD701D9968C91882383
:1026000069F00E94360D0E94300D0E942C0D0E9430
:102610004F0D84E30E943A0DF70111AEE1E0D701BE
:10262000D896EC9386E30E943A0D8BE30E943A0D14
:1026300028ECD22E85E30E943A0D87EC90E00197BA
:10264000F1F700C00000DA94D11016C086E30E94B2
:102650003A0D8BE30E943A0D8DE30E943A0D84E31C
:102660000E943A0D60EC85E30E94580D8D30B9F759
:10267000D701D8961C9256C060EC85E30E94580D95
:102680008331C1F6EFE1FEE43197F1F700C00000BD
:102690002CA5222349F08FE79BE8A8E081509040C9
:1026A000A040E1F700C000000E94360D0E94300DEE
:1026B0008FE30E94260D8BA50E94260D0E942C0DF3
:1026C0000E94360D0E94300D8FE70E94260DD82CF7
:1026D0009401822F8D19FBA58F1750F4F901819178
:1026E0009F01EFA738AB0E94260D38A92FA5F1CF87
:1026F0000E942C0D98ECD92E60EC85E30E94580DB9
:102700008D3031F4D701D8961C92DD24D3940AC0C1
:10271000E7ECF0E03197F1F700C00000DA94D11057
:10272000EBCFF0CFFD2DF170FF2E8DE592E00E94F2
:102730003302C8010E949C06DD2079F1D80112966F
:102740008C9185FF2AC0C3010E947303882329F15D
:10275000CE0101960E9465038CE3F82EF50182817B
:102760009381BE016F5F7F4F8A960E946210811134
:1027700021C08FE19EE40197F1F700C00000FA94B8
:10278000F110ECCF83E592E00E9433028F2D0E947E
:102790008D0682E592E00E94C711D50112968D91B7
:1027A0009C911397F11039C0CA94C110D5CE64E042
:1027B00070E035C08EE492E00E943302CE010196B3
:1027C0000E949C06D80111969C918A819813D1CFC2
:1027D000BE016B5F7F4FC3010E948203882349F2D1
:1027E0008C81823031F4FB84F094FF1CFF24FF1CA9
:1027F00001C0F12CF801828181FD03C08B8180FF33
:10280000C1CFF5018281938142E350E060E070E046
:102810008C599F4F0E949D05B5CF63E070E00196F3
:102820000E9490118F2DE0960FB6F894DEBF0FBE78
:10283000CDBFDF91CF911F910F91FF90EF90DF906F
:10284000CF90BF90AF909F908F907F906F905F9050
:102850004F903F902F9008952F923F924F925F920A
:102860006F927F928F929F92AF92BF92CF92DF92A0
:10287000EF92FF920F931F93CF93DF93CDB7DEB705
:10288000E4970FB6F894DEBF0FBECDBF7C018B017D
:1028900019AA18AA1FA6CE018F960E94790D1801B9
:1028A00027E0220E311CBE01615D7F4FC1010E94F5
:1028B0008203C82E882349F1D7011296CD90DC906F
:1028C00013975601BAE2AB0EB11CC5010E948219E2
:1028D0008AE090E0A0E0B0E0F60187A790ABA1AB62
:1028E000B2AB81E083ABB5018EE293E00E94B90BFD
:1028F0008DEB92E00E943302C8010E949C06D80131
:1029000012968C9186FD45C056C0F801808189835E
:1029100081818A83B280BB8223812C8384818D83D1
:1029200085818E8386818F8387818887808589874B
:1029300081858A8782858B87A384AC868EE13C96CD
:10294000DE011D9601900D928A95E1F764E273E035
:10295000CE0108962CAB0E948203D82E2CA9882386
:1029600029F0213019F4FAE0AF1649F0B2FE06C0A2
:102970002054CC24C394223008F0C12CDC2CD1107C
:102980009BCF8BEA92E00E943302C8010E949C0612
:1029900008C4B8016C5F7F4FC70107960E9482038D
:1029A000882349F0D7011A969C91F80181819813E8
:1029B00002C0D12CF6C3F8018481D70117968C93FD
:1029C0001797858118968C931897868119968C9302
:1029D000199781811A968C939381328583859130E2
:1029E000A1F48A3009F09AC0CE0101960E94740DBC
:1029F0004AE050E0BE016F5F7F4FC8010C960E9415
:102A0000A325892B09F4DFC08DC09131B9F534308D
:102A100011F03A3C51F58AE0D8018C9382E013968C
:102A20008C93139712961C9212971A961C92A801D7
:102A30004C5F5F4FB801C7013CAB0E9455123CA9E7
:102A40003A3C79F480EA92E00E94C7119CE088E168
:102A50000FB6F894A895809360000FBE9093600025
:102A6000FFCFC7010E94F60E69C0882309F466C033
:102A7000F70191AD981708F461C059C3923139F448
:102A800083EB92E00E94C711C12CD12C69C39054F2
:102A9000923008F047C055245394612CC12CD12C9E
:102AA00022E0D701D9968C91851590F1F70184AC7D
:102AB00095ACD4011C968C91811128C0F8018285B7
:102AC0008F7394819BA795819CA796819DA78EA7C4
:102AD0005401F9E0AF0EB11C712C472DB501CE01A8
:102AE00001962CAB0E943C11BE016F5F7F4FCE015F
:102AF0008B960E9461052CA9811105C0739436E064
:102B00007312EBCF03C06394640121E05394C9CFE7
:102B1000B1E0B615B0F4C12CD12C13C0813031F422
:102B200031116FC0C12CD12C22E00BC0823009F4CE
:102B30006FC0833009F0DFC0311173C0C12CD12CBC
:102B400020E0F801828185FF2EC0BE01615D7F4FCC
:102B5000C1012CAB0E9482032CA9882321F12130D2
:102B600009F00DC3A8014C5F5F4FC114D10409F4F3
:102B7000F9C2D7011296ED91FC91139785A99EE0B9
:102B8000F801908392E0938312822287D6011D96EA
:102B90009C919387148615868687B801C7010E9489
:102BA0005512F6011386D70112968D919C911397B9
:102BB00042E350E060E070E08C599F4F0E949D0519
:102BC000DD24D394EEC2F7018281938161E070E04D
:102BD00001960E949011D70112968D919C911397A6
:102BE00040ED57E060E070E08C599F4F0E949D05DA
:102BF000F8014081B8016C5F7F4FC7010E94BE0E93
:102C00009DCFD701D9968C91831708F48BCFA6C19D
:102C1000332309F487CFF70181AD831708F482CFFE
:102C200024C2F70181AD831708F488CFF70164ACA3
:102C300075ACD80111968C91119714962C9114971C
:102C40002BA715962C9115972CA716962C912DA78E
:102C50005701BBE0AB0EB11C2AE1238720E1268798
:102C600020E22587958B84874701E6E18E0E911C33
:102C70006401512C412CF9E06F0E711C442DB301FD
:102C8000CE0101960E943C11CE0101960E94730371
:102C90008823C9F089819A81AB81BC81F601819337
:102CA0009193A193B1936F015394F4E05F120BC021
:102CB000AE01455D5F4FB501C7010E945512640129
:102CC000512C882321F0439426E04212D7CFD6011D
:102CD0001D921D921D921C921397852D880F880FAF
:102CE000825FF701838785858F7D8587AE01455D8E
:102CF0005F4FB5012FC1843009F083C0D8015096D1
:102D00002C91A801445F5F4F632FC7010E94E00D23
:102D100029833A834B835C836D837E838F832981F0
:102D20003A813BAB2AAB232B09F469C0D801119639
:102D30008C91119714969C9114979BA715969C9132
:102D400015979CA716969C919DA74701BBE08B0EFB
:102D5000911C9AE1F701938790E1968790E295871D
:102D600092E0958B84876701F6E1CF0ED11C360186
:102D7000A12CB12C40E02B8130E0A216B3063CF52B
:102D8000EC81FD818A2D4CAB0995D3018C932301F5
:102D9000B2E04B0E511C8AA99BA98A0D9B1D0E9473
:102DA000A80DF30181834CA94F5F483059F4AE015F
:102DB000455D5F4FB401C7010E945512882349F059
:102DC000260140E0FFEFAF1ABF0A3201D4CF630102
:102DD00001C040E0D6011C9211961C92842F880FEE
:102DE000845FF701838785858F7D8587AE01455D8B
:102DF0005F4FB401C7010E94551220E08CCE22E043
:102E00008ACE8E3049F5D701DC96CD90DC90DD97E7
:102E1000F80131811296ED91FC91139795A9D60195
:102E20001D962C91F701838780E1868786E0858B4C
:102E30003487268B178A108E918F82E08587A801B0
:102E40004C5F5F4FB701655F7F4FC7010E9455120E
:102E5000D6011B961C9272CE8530E1F4F70136AF95
:102E6000D80150962C91A801445F5F4F632FC70192
:102E70000E94E00DF70127AFE05CFF4F30833196F1
:102E800040833196508331966083319670833196BA
:102E90008083FACD863099F5F701FF962081318144
:102EA000D701DA968D919C91DB972817390791F419
:102EB00012968D919C91139760E070E001960E94AC
:102EC0009011D701ED91FC910480F581E02DC701AF
:102ED000099505C0F70184AD95AD0E94CD028FEF35
:102EE000D701DE968C938AE0F801808382E08383A9
:102EF00082831286A8014C5F5F4FB8012BC08830D7
:102F000081F4D701DE968C918313BECD6701BFE3B8
:102F1000CB0ED11CF60180819181892B09F0D5C09F
:102F2000B3CD893009F0FECDD80111968C9194E192
:102F3000F701938790E196871586158A8487168A0C
:102F4000C70146960E94740DA8014C5F5F4FB70100
:102F5000655F7F4FC7010E945512F0CDD701DC9607
:102F6000CD90DC90DD97C8010E946B05F8013C967E
:102F70004F019601275F3F4F59018130E1F4B401C1
:102F8000C5010E947C0EC5010E94BA0D782EBFEFCC
:102F90008B1709F4C9CD682FC6010E960E94170D34
:102FA00044E050E0BC01C4010E949E22472DB501BF
:102FB000CE0101964AC0F801808994859983958550
:102FC0009A8396859B838C83B401C5010E947C0EF5
:102FD000BE016F5F7F4FC5010E947C0EC5010E943C
:102FE000BA0D582EFFEF8F1709F49ECD36012EE053
:102FF000620E711C682FC3010E94170D44E050E05F
:10300000BC01C4010E949E22C5010E94BA0D482E37
:103010003FEF831729F1682FC3010E94170D44E089
:1030200050E0BC01CE0101960E949E22D8011F965D
:103030008C9180FF0DC0452DB501CE018B960E946D
:103040000411442DB501CE018B960E94041139C0A4
:10305000442DB501CE018B960E940411452DF2CF6F
:10306000B401C5010E947C0E5FCDC4ACD5AC460155
:10307000B9E08B0E911CB801645F7F4FC4010E94C0
:103080007C0EB82EC8010E946B058230B9F4D801BD
:1030900050968C9150971C969C911C9799831D96E5
:1030A0009C911D979A831E969C919B838C83BE0155
:1030B0006F5F7F4FC4010E947C0EB822BB2009F4D1
:1030C00033CDC6010E94CD024BC0D8018C918B300C
:1030D00060F195EF592E580E5801FCE0AF0EB11C6F
:1030E0004501370124E4620E711C882D8A1985156B
:1030F00008F0CACCD40111964C90D301ED91FC910B
:10310000D4018C9109958F3F61F0F6016081718146
:10311000680F711D498241E050E0CE0101960E9486
:103120009E22F2E08F0E911CE0CF512CD5CFF701FB
:10313000C4ACD5AC313019F4F601348711C031304C
:1031400020F4D6011C961C920BC0323031F4D6010B
:103150001C968C918111F4CCE7CC333009F0F0CC83
:1031600021E0EFCC8AE0D8018C9382E013968C9317
:10317000139712961C9212971A961C920DC0223029
:1031800009F011CD8AE0F80180832383128280E860
:103190008287A8014C5F5F4FB801C7010E9455129A
:1031A00002CD8D2DE4960FB6F894DEBF0FBECDBFD5
:1031B000DF91CF911F910F91FF90EF90DF90CF9013
:1031C000BF90AF909F908F907F906F905F904F9047
:1031D0003F902F900895009769F0FC010190002026
:1031E000E9F73197AF01481B590BBC0187E892E022
:1031F0000C94410880E090E008958F929F92AF92E6
:10320000BF920F931F93CF93DF93CDB7DEB7A197F4
:103210000FB6F894DEBF0FBECDBF19A2423008F43E
:103220004AE08E010F5D1F4F842E912CA12CB12CF2
:10323000A50194010E94E822E62FB901CA010150BC
:103240001109EA3014F4E05D01C0E95CD801EC93A7
:10325000232B242B252B61F7C8010E94EB18A19684
:103260000FB6F894DEBF0FBECDBFDF91CF911F9197
:103270000F91BF90AF909F908F900895E09187023B
:10328000F09188020190F081E02D682F87E892E0AC
:1032900009940F931F93CF93DF938C01C0E0D0E08C
:1032A000F801EC0FFD1F6491662371F0E091870235
:1032B000F09188020190F081E02D87E892E0099575
:1032C000892B11F02196ECCFCE01DF91CF911F9188
:1032D0000F910895CF93C0E080E393E00E941A0617
:1032E000009769F0029759F0DC01ED91FC91019093
:1032F000F081E02D6EE273E00995C1E0EDCF8C2FF7
:10330000CF910895AF92BF92DF92EF92FF920F9309
:103310001F93CF93DF938C01DFB6F8948EE293E096
:103320000E949605009719F0EC01229702C0C0E0B8
:10333000D0E08EE2E82E83E0F82E209781F1CE01D6
:1033400002965C01C017D107F1F4C7010E941A066A
:10335000C5010E949605009709F44EC0FC01329702
:1033600009F44AC04D815E816F817885858196819F
:10337000A781B085840F951FA61FB71F85839683ED
:10338000A783B08739C07C01C5010E9496050097CC
:1033900019F0EC012297D1CFC0E0D0E0CECF580198
:1033A00092E0A90EB11CFFB6F894EFB6F89480E352
:1033B00093E00E949605EC0120E333E0209781F032
:1033C000CA15DB0511F4890102C000E010E0CE014E
:1033D0000E9496059E010115110521F4EC01EECF26
:1033E00000E010E0EFBE0115110511F4FFBE04C0AE
:1033F000C8010E941A06FACFDFBEDF91CF911F915C
:103400000F91FF90EF90DF90BF90AF9008951F93C2
:10341000CF93DF931F92CDB7DEB7162F0E943203F2
:103420008F3F81F02091860330918703B901680FA7
:10343000711D198341E050E0CE0101960E949E2249
:1034400081E001C080E00F90DF91CF911F9108953E
:10345000CF93DF93EC01862F0E9432038F3F51F010
:1034600028813981A901480F511DCA01DF91CF91EF
:103470000C94A80D80E0DF91CF910895CF93DF9356
:10348000EC01862F0E94FF028F3F51F02881398185
:10349000A901480F511DCA01DF91CF910C94A80DCD
:1034A00080E0DF91CF910895CF938091080481113E
:1034B00016C0CFEF86E30E943A0DC150807731F0FD
:1034C0008AE18A95F1F700C0C111F4CF8AE30E9426
:1034D0003A0D89E30E943A0D81E080930804CF9170
:1034E0000895FF920F931F93CF93DF931F92CDB751
:1034F000DEB7082FF62E49830E94360D0E94300D4C
:10350000802F0E94260D8F2D0E94260D0E942C0DCB
:1035100060E8802F0E94580D182F49818F1569F19E
:10352000442361F041506F2D802F0E94711A8FEC5F
:1035300097E00197F1F700C000001FC08AE292E017
:103540000E943102802F0E948D0684E392E00E9447
:1035500031028F2D0E948D0680E492E00E9431029C
:10356000812F0E948D0681EC92E00F90DF91CF9128
:103570001F910F91FF900C9433020F90DF91CF9128
:103580001F910F91FF900895FC0111860895EF920D
:10359000FF921F93CF93DF931F92CDB7DEB77C01CD
:1035A00061E0DC0151968C910E946B0A60E0F701AA
:1035B00081890E943B0A60E0D70150968C910E945D
:1035C0003B0AF70180890E94A70A8FE99FE00197D3
:1035D000F1F700C00000D70150968C910E94A70A15
:1035E000FC01D70152962C9130E0A4EEBCE00E9481
:1035F0000A239B01AC01DF010E94E02220E030EAB7
:103600004FE050E00E94E822122F61E0F70180892C
:1036100039830E943B0A60E0D70151968C910E9449
:103620006B0A87ED92E00E943302812F3981932F3C
:103630000E943502812F0F90DF91CF911F91FF9053
:10364000EF900895CF93DF93CDB7DEB72E970FB6E7
:10365000F894DEBF0FBECDBF789484B5826084BD80
:1036600084B5816084BD85B5826085BD85B5816086
:1036700085BD80916E00816080936E001092810004
:1036800080918100826080938100809181008160BF
:103690008093810080918000816080938000809180
:1036A000B10084608093B1008091B000816080930C
:1036B000B00080917A00846080937A0080917A00D3
:1036C000826080937A0080917A008E7F80937A0066
:1036D00080917A00806880937A001092C100E09116
:1036E0009702F091980282E08083E0919302F0913A
:1036F00094021082E0919502F091960280E180831D
:1037000010929F02E0919B02F0919C0286E08083E0
:10371000E0919902F0919A02808180618083E0912A
:103720009902F0919A02808188608083E0919902E9
:10373000F0919A02808180688083E0919902F091F3
:103740009A0280818F7D808381E291E00E94C7117F
:103750001D861C861B866E010BE0C00ED11CC601A7
:103760000E94790DCE0101960E94740D8AE690E0C8
:103770000E9433028E010F5F1F4FF80181918F016C
:103780000E943E190C151D05C1F784EB91E00E94C3
:1037900031026B85862F90E0A0E0B0E0DC01992734
:1037A00088272D85AC01BD01422B8C8590E0982F98
:1037B0008827A0E0B0E08A019B01082B192B2A2B57
:1037C0003B2BC901B8010E943D0687EB91E00E94A6
:1037D000310288E690E00E943302E0908603F09088
:1037E000870317E0E10EF11CE0E00CE413E08091A8
:1037F0008503E81710F5992493949E0EF0E0EE0FE0
:10380000FF1FE857FC4FA080B18060E08EE00E946F
:103810006B0A61E085E00E946B0AF501128701875F
:103820009586F786E686B5018EE293E00E94B90B95
:10383000F8E2EF0EF11CE92DDACF00918803109128
:10384000890389EB91E00E943102609181037091BC
:10385000820380E090E04AE00E94FD1889EC91E04C
:103860000E943102F8018685978588960E9435026C
:1038700060E080E090E00E9440037C0104ED10E0F5
:1038800077E0B72EB00EF8016491C7010E944003A3
:103890007C010F5F1F4FB012F6CF01E080918503CE
:1038A000801768F1A0908803B090890310E0812F01
:1038B0000E942B0F682FC7010E9440037C011F5FED
:1038C0001430A9F7B501675F7F4F40E0CE01019644
:1038D0000E94041180E00E94290F682FC7010E94F6
:1038E00040037C0180E00E94210F682FC7010E94E5
:1038F000400366E00E9440037C010F5FCFCF44E0AD
:1039000050E060E070E0C6010E948E22C701A0E096
:10391000B0E08C019D012E6F3A6C09831A832B83D2
:103920003C836B857C858D859E8506171707280748
:10393000390709F449C00E943D0683EC90E00E94DB
:10394000330285EC90E00E94330269817A818B8199
:103950009C810E943D0683EC90E00E94330244E08B
:1039600050E060E070E0CE0101960E949E22E0905F
:103970008603F090870300E010E01982B8016E0D15
:103980007F1D41E050E0CE0101960E949E220F5F14
:103990001F4F0730110589F760E081E00E94071A88
:1039A00066E182E10E94071A60E081E20E94071A44
:1039B000882321F06EE182E20E94071A10E08091D4
:1039C0008503181708F46AC08FEC93E090934F03B7
:1039D00080934E031B821A821982CE0101960E94A7
:1039E000790D89819A810E947A2284E08093E40390
:1039F00061E00E946B0A81ED93E00E942210E8983A
:103A000084E799E0909301018093000189EF93E0AE
:103A100090934902809348028BEB90E00E9433021E
:103A200061E08AE00E946B0A61E08BE00E946B0A11
:103A300060E08CE00E946B0A61E08DE00E946B0AFE
:103A400080E58CBD61E08AE00E943B0A61E08DE088
:103A50000E943B0A60E08BE00E943B0A60E082E04B
:103A60000E946B0A89EB90E00E94C7110E94360DFC
:103A70000E94300D0E942C0DF5E8FA95F1F7000038
:103A80000E94360D0E94300D80E30E94260D0E9498
:103A9000300D0E942C0D01E810E036C0E12FF0E05F
:103AA000EE0FFF1FE857FC4FE080F18068E270E006
:103AB000F701868597850E947E0DF701868597859B
:103AC0009A83898364E070E00E947E0D43E063E2A4
:103AD000CE0101960E940D03882331F04EE364E28B
:103AE000CE0101960E940D0341E065E2CE010196F0
:103AF0000E940D03882331F044EA66E2CE0101966C
:103B00000E940D031F5F5BCFF80131966491F801AD
:103B1000849143E00E94711A0E5F1F4FF0E0093B51
:103B20001F0791F78DEC91E00E94310260EC81E378
:103B30000E94580D0E948D0681EC92E00E94330293
:103B400083E30E943A0D8FEA93EB0197F1F700C0EF
:103B5000000043E060EC8EE30E94711A88E790E079
:103B60000E94C7118FE39FE09093010180930001B1
:103B7000809169008C7F826080936900E89A80E17F
:103B80008093810010928000109285001092840032
:103B900080E49CE9909387008093860081E1809384
:103BA00081000E94A20D66E070E080ED93E00E942B
:103BB00090110E9475226CEA7DE00E9457248C01CE
:103BC00008511C4F89EF93E00E9482199801A4E6E6
:103BD000B0E00E940A2328EE33E040E050E00E946B
:103BE000E8222093FE033093FF0340930004509398
:103BF000010481E08093020469EF73E08EE293E0B8
:103C00000E94B90B89E38093F80360E08091F6038A
:103C10000E946B0A60E08091F7030E946B0AE091BA
:103C2000E603F091E7030680F781E02D86EE93E04E
:103C300009958093EF0380E895EDA4E0B0E08093D0
:103C4000F0039093F103A093F203B093F3038093F6
:103C5000EB039093EC03A093ED03B093EE0366EEB9
:103C600073E08EE293E00E94B90B86E18093F40347
:103C700082E18093F50388E080933C0362E00E9438
:103C80006B0AE5E1F1E08491E1E0F1E0949192309A
:103C900059F420917A02282B20937A0220917702FE
:103CA000282B2093770219C0933059F42091790280
:103CB000282B2093790220917602282B20937602DC
:103CC0000CC0943051F420917802282B2093780274
:103CD00020917502282B20937502EDEEF0E0A4915F
:103CE0009230D1F4B0E0AA0FBB1FA759BD4F2AEA0A
:103CF00031E02D933C93EFEDF0E0A591B4919C91D0
:103D0000909368022BE630E030937C0220937B0294
:103D100090916800916037C09330D1F4B0E0AA0F61
:103D2000BB1FA45ABD4F2AEA31E02D933C93E1EE2C
:103D3000F0E0A591B4919C9190935B022CE630E069
:103D400030937C0220937B029091680092601BC0AC
:103D50009430D9F4B0E0AA0FBB1FA55BBD4F2AEA8F
:103D600031E02D933C93E3EEF0E0A591B4919C916A
:103D700090934A022DE630E030937C0220937B0240
:103D800090916800946090936800A0917B02B0913C
:103D90007C02EC918E2B8C93E0914C03F0914D03BF
:103DA0000480F581E02D8CE493E0099511E0809189
:103DB0008503811740F080918803909189030E94C8
:103DC000CD021F5FF4CF1EE00E946A19F82E811108
:103DD00003C00E946A19F82E80914E0390914F0300
:103DE00067E573E08A960E9462108B3070F0E09174
:103DF0004C03F0914D030680F781E02D67E573E0F9
:103E00008CE493E00995982F01C090E0EE24E394B0
:103E100000E1B02E82E2A82E26E0922E809185034A
:103E20008E15E0F1C0908803D0908903F601838558
:103E3000882391F1009152030F5F00935203609128
:103E4000500370915103CE0101960E941911E09127
:103E50004E03F0914F0385A9F60195851093570302
:103E6000B0925A03A09259039092610300935803B1
:103E7000909362031092630310926403809365032E
:103E8000AE014F5F5F4F67E573E08CE493E00E9403
:103E90005512F601138691E0E394C0CFF1109CC156
:103EA00091119AC19091EF038091F503981768F4EE
:103EB0000E94541A20E030E040E050E06AE070E0F8
:103EC0008DE792E00E946D0BF5CF80913C0481114B
:103ED00072C187E892E00E941F098091C00085FDB1
:103EE00006C08091C00080648093C000F6CF8091AE
:103EF000C00086FFFCCF80916F008E7F80936F00A3
:103F00008EE293E00E949605009741F0FC01329703
:103F100029F0C580D680E780F08403C0C12CD12C65
:103F2000760180E393E00E949605892B09F040C159
:103F3000F1E0CF16D104E104F10409F4D4C00E94E9
:103F4000541A01E2C01603E0D006E104F10408F0BF
:103F500047C021E9C21621E0D206E104F10408F0CD
:103F600048C039ECC316D104E104F10408F04AC09A
:103F700085E6C816D104E104F10408F04BC093E3D0
:103F8000C916D104E104F10408F04CC0EAE1CE16F0
:103F9000D104E104F10408F04DC0FDE0CF16D104D6
:103FA000E104F10408F04EC007E0C016D104E104BA
:103FB000F10408F04FC024E0C216D104E104F1047A
:103FC00008F050C032E0C316D104E104F10408F453
:103FD00051C060E070E0C12CD12C7601C3944FC079
:103FE00069E070E0A0E2CA2EA3E0DA2EE12CF12C09
:103FF00046C068E070E0F0E9CF2EDD24D394E12CD8
:10400000F12C3DC067E070E0E8ECCE2ED12CE12C25
:10401000F12C35C066E070E054E6C52ED12CE12CC1
:10402000F12C2DC065E070E042E3C42ED12CE12CD0
:10403000F12C25C064E070E039E1C32ED12CE12CD5
:10404000F12C1DC063E070E02CE0C22ED12CE12CDD
:10405000F12C15C062E070E096E0C92ED12CE12C65
:10406000F12C0DC061E070E083E0C82ED12CE12C72
:10407000F12C05C06AE070E0C12CD12C760120E063
:1040800030E040E050E08DE792E00E946D0B81E06F
:10409000C81AD108E108F1088EE293E00E94960563
:1040A0000097E1F0FC013297C9F085819681A781E4
:1040B000B085AC01BD0141505109610971094C1530
:1040C0005D056E057F0510F46A017B018C199D0961
:1040D000AE09BF0985839683A783B0878EE293E0FC
:1040E0000E943E0C65C00E94A20D8091B10081FF2C
:1040F00002C084E001C080E09091B10090FD826038
:104100009091B1009091B1009B7F9093B1009091FC
:10411000B1009D7F9093B1009091B1009E7F9093EC
:10412000B1009091640090649093640090917A0043
:104130009F7790937A0090916400916090936400CF
:1041400090916400906290936400909164009068F4
:104150009093640093B7917F93BFF89493B7916065
:1041600093BF7894889593B79E7F93BF78949091EE
:1041700064009E7F9093640090917A009068909381
:104180007A0081FF05C08091B10084608093B10006
:10419000809164008F7B80936400809164008F7DA8
:1041A00080936400809164008F778093640014C0D2
:1041B0000E94A20D11C080910804882369F00E941A
:1041C000360D0E94300D0E942C0D0E944F0D84E38D
:1041D0000E943A0D109208040E944109F5CD82E335
:1041E00093E00E941A0F8CE493E00C94E6010F9385
:1041F0001F93CF93DF93E7E8F2E01382128288EEF9
:1042000093E0A0E0B0E084839583A683B78382E146
:1042100091E09183808385EC90E09587848784EC9E
:1042200090E09787868780EC90E0918B808B81EC83
:1042300090E0938B828B82EC90E0958B848B86EC64
:1042400090E0978B868B118E128E138E148EE4E283
:10425000F3E0128211821082EEE2F3E0118210820A
:1042600013821282E9E2F3E0118210821382128239
:1042700014821092280310922703EFECF3E0F093DE
:104280003E04E0933D041582148217821086118645
:1042900012868CE791E093838283138A148A158AAD
:1042A000168A11E01683128E118E138E148E158EBF
:1042B000168E178E10A211A212A213A214A215A27A
:1042C00016A282E991E0908F878B84E187A383E037
:1042D00080A789E381A715A614A617A610AA11AA7C
:1042E00012AA8EE991E093A782A713AA16A715AA8E
:1042F00016AA17AA10AE11AE89E094E00E946503D9
:104300001092360410923504109238041092390439
:1043100010923A0410923B0488EA91E0909334049E
:104320008093330410923C0410933704CCE4D3E020
:1043300082E491E0998388831B821A8286E893E065
:104340009D838C831E82198618861F821A8687E5B4
:1043500093E00E94650380E290E09EAB8DAB23EC7E
:1043600032E038AF2FAB19AF9BAF8AAF8FEF80939E
:104370008A0310928C0310928B0310928D0310927B
:104380008F0310928E03109291031092900384E693
:1043900091E09983888310929C0310929B03109262
:1043A0009D0310929E0310929F031092A1031092FE
:1043B000A00310929503109294031092960310920A
:1043C0009703109298031092990310929A0302E9AE
:1043D00013E08AE591E0F8019183808382EA93E01B
:1043E0000E9465031092CD031092CC031DAF0CAF59
:1043F00080E791E099838883E2E3F3E013821282FD
:1044000014821582168217821086ABE3B3E08C917A
:10441000887F816088608C931286108A1786118A43
:10442000128A138A148A158A84E291E09687858716
:10443000F78BE68B86E391E091838083D18FC08FE9
:104440008CE291E094878387DF91CF911F910F9148
:1044500008958F929F92AF92BF92CF92DF92EF9288
:10446000FF92CF93DF93EC01688179818A819B81F0
:10447000611571058105910521F464E279ED8BE503
:1044800097E02DE133EF41E050E00E94B622490170
:104490005A019B01AC01A7EAB1E40E94D5226B014D
:1044A0007C01ACEEB4EFA50194010E94E322DC0193
:1044B000CB018C0D9D1DAE1DBF1DB7FF03C0019725
:1044C000A109B04888839983AA83BB839F77DF9132
:1044D000CF91FF90EF90DF90CF90BF90AF909F90E3
:1044E0008F9008950E942922089584E091E00E940F
:1044F00029220895A0E0B0E0809304019093050183
:10450000A0930601B09307010895FB01DC0102C0EE
:1045100005900D9241505040D8F70895DC01CB0131
:10452000FC01F999FECF06C0F2BDE1BDF89A3196C3
:1045300000B40D9241505040B8F70895DC01CB0112
:1045400003C02D910E94A92241505040D0F70895F8
:10455000262FF999FECF1FBA92BD81BD20BD0FB69F
:10456000F894FA9AF99A0FBE01960895052E97FBD2
:104570001EF400940E94CD2257FD07D00E94E8222D
:1045800007FC03D04EF40C94CD2250954095309505
:1045900021953F4F4F4F5F4F0895909580957095AF
:1045A00061957F4F8F4F9F4F08950E940A23A59FCB
:1045B000900DB49F900DA49F800D911D112408951E
:1045C000B7FF0C94D5220E94D522821B930B08952D
:1045D000A1E21A2EAA1BBB1BFD010DC0AA1FBB1F07
:1045E000EE1FFF1FA217B307E407F50720F0A21B79
:1045F000B30BE40BF50B661F771F881F991F1A94E6
:1046000069F760957095809590959B01AC01BD010F
:10461000CF010895A29FB001B39FC001A39F700D69
:10462000811D1124911DB29F700D811D1124911DBA
:1046300008950E948D2388F09F5798F0B92F9927ED
:10464000B751B0F0E1F0660F771F881F991F1AF07D
:10465000BA95C9F714C0B13091F00E94A723B1E018
:1046600008950C94A723672F782F8827B85F39F017
:10467000B93FCCF3869577956795B395D9F73EF416
:1046800090958095709561957F4F8F4F9F4F0895BE
:10469000E89409C097FB3EF49095809570956195DC
:1046A0007F4F8F4F9F4F9923A9F0F92F96E9BB2792
:1046B0009395F695879577956795B795F111F8CF0E
:1046C000FAF4BB0F11F460FF1BC06F5F7F4F8F4F79
:1046D0009F4F16C0882311F096E911C0772321F06F
:1046E0009EE8872F762F05C0662371F096E8862F07
:1046F00070E060E02AF09A95660F771F881FDAF75E
:10470000880F9695879597F9089557FD9058440F0F
:10471000551F59F05F3F71F04795880F97FB991F20
:1047200061F09F3F79F087950895121613061406DD
:10473000551FF2CF4695F1DF08C01616170618066A
:10474000991FF1CF86957105610508940895E89445
:10475000BB2766277727CB0197F908950E94C123CD
:104760000C9432240E94242438F00E942B2420F040
:10477000952311F00C941B240C94212411240C94E7
:10478000A8230E94852370F3959FC1F3950F50E0F5
:10479000551F629FF001729FBB27F00DB11D639FF3
:1047A000AA27F00DB11DAA1F649F6627B00DA11D99
:1047B000661F829F2227B00DA11D621F739FB00D3F
:1047C000A11D621F839FA00D611D221F749F3327AF
:1047D000A00D611D231F849F600D211D822F762F48
:1047E0006A2F11249F5750409AF0F1F088234AF025
:1047F000EE0FFF1FBB1F661F771F881F9150504091
:10480000A9F79E3F510580F00C941B240C94A8231B
:104810005F3FE4F3983ED4F3869577956795B79517
:10482000F795E7959F5FC1F7FE2B880F911D969531
:10483000879597F9089597F99F6780E870E060E0A1
:1048400008959FEF80EC089500240A941616170629
:1048500018060906089500240A9412161306140671
:1048600005060895092E0394000C11F4882352F0D4
:10487000BB0F40F4BF2B11F460FF04C06F5F7F4F8C
:104880008F4F9F4F0895AA1BBB1B51E107C0AA1F62
:10489000BB1FA617B70710F0A61BB70B881F991FE1
:1048A0005A95A9F780959095BC01CD01089597FB85
:1048B000072E16F4009407D077FD09D00E944324F8
:1048C00007FC05D03EF4909581959F4F0895709513
:1048D00061957F4F0895EE0FFF1F0590F491E02D35
:1048E0000994CF93DF938230910510F482E090E039
:1048F000E0914104F091420420E030E0C0E0D0E0DB
:10490000309711F14081518148175907C0F048177D
:10491000590761F482819381209719F09B838A83E0
:104920002BC0909342048093410426C02115310589
:1049300019F04217530718F49A01BE01DF01EF0185
:104940000280F381E02DDCCF2115310509F1281B10
:10495000390B2430310590F412968D919C91139768
:104960006115710521F0FB019383828304C090934C
:10497000420480934104FD01329644C0FD01E20FE0
:10498000F31F81939193225031092D933C933AC0A8
:1049900020913F0430914004232B41F420910A01DF
:1049A00030910B013093400420933F042091080183
:1049B000309109012115310541F42DB73EB74091E1
:1049C0000C0150910D01241B350BE0913F04F09137
:1049D0004004E217F307A0F42E1B3F0B28173907FA
:1049E00078F0AC014E5F5F4F2417350748F04E0F4B
:1049F0005F1F5093400440933F048193919302C002
:104A0000E0E0F0E0CF01DF91CF9108950F931F9385
:104A1000CF93DF93009709F48CC0FC013297138287
:104A2000128200914104109142040115110581F494
:104A300020813181820F931F20913F0430914004E7
:104A40002817390779F5F0934004E0933F0471C0CB
:104A5000D80140E050E0AE17BF0750F412962D91F8
:104A60003C911397AD012115310509F1D901F3CF1F
:104A70009D01DA013383228360817181860F971F44
:104A80008217930769F4EC0128813981260F371FBB
:104A90002E5F3F4F318320838A819B819383828362
:104AA000452B29F4F0934204E093410442C013964D
:104AB000FC93EE931297ED01499159919E01240FB9
:104AC000351FE217F30771F480819181840F951FE0
:104AD000029611969C938E938281938113969C9358
:104AE0008E931297E0E0F0E0D80112968D919C91A0
:104AF0001397009719F0F8018C01F6CF8D919C91D6
:104B000098012E5F3F4F820F931F20913F043091F9
:104B100040042817390769F4309729F410924204A9
:104B20001092410402C01382128210934004009339
:104B30003F04DF91CF911F910F91089581E090E0A4
:104B4000F8940C94B925FB01DC0104C08D9101900F
:104B5000801921F441505040C8F7881B990B0895E3
:104B6000FB01DC0102C001900D9241505040D8F78A
:104B7000089511E0C0E7D1E004C0FE010E946B245B
:0C4B80002196C137D107C9F7F894FFCF88
:104B8C007409740901000000000043048000000057
:104B9C000000D808410870081F09A1087F08930875
:104BAC0000000000B10F000000006D0F3A11121050
:104BBC00CD11000000006D0F1A0F0E10FA1100003D
:104BCC000000181110104B0F490F000000003B1192
:104BDC0014104B0F2C14000000009503FE02A601CC
:104BEC00000000004C0F16104B0F2C14000000009E
:104BFC00E601ED013F022C1400000000930929028C
:104C0C00A40100000000B4016303A8018D020000A0
:104C1C000000B4012802A201C71A00000000C41A47
:104C2C002702A001000000009B0164039E0100000C
:104C3C0000007509202800290041646472657373B3
:104C4C002053706163653A2000202D2000434320DF
:104C5C0056657273696F6E3A20002A4C4F5720428A
:104C6C004154204C696D69743A20002A57616B6578
:104C7C002D4F6E2D526164696F3A20002A53656E78
:104C8C006465696E74657276616C6C3A200043528F
:104C9C0043204661696C6564005061636B657420E8
:104CAC00746F6F206269673A20004572726F7220D0
:104CBC00617420002065787065637465643A200027
:084CCC0020726561643A2000CA
:00000001FF
