:100000000C9454010C94260B0C94FF0A0C94D50705
:100010000C9472070C9401070C944D0B0C947C010A
:100020000C947C010C94840C0C947C010C947C0149
:100030000C947C010C94AE0C0C947C010C947C010F
:100040000C94B50A0C947C010C94D7090C94B1095A
:100050000C947C010C947C010C947C010C947C012C
:100060000C947C010C947C01300030300030303036
:100070000030303030003030303030003030303010
:10008000303000303030303030300020000A002076
:100090002D20002000200020002000200020004211
:1000A00061743A20002920253A20002B48756D699B
:1000B00064697479202823002B53656E736F722056
:1000C000416E616C6F672D56616C75653A20000A50
:1000D000000A000A00202D20726561647900002E5C
:1000E0000206030D04E905CA070C0B060D210E6577
:1000F0000F6A10C811931203153417031818191634
:100100001B43215623E9242A251F261129592C8116
:100110002D352E093E033100434320696E6974007A
:100120000A00496E69742053746F726167653A20E2
:10013000000A0B0C011221220000000023002600FF
:10014000290000010203040506070001020304055B
:10015000000102030405040404040404040402026C
:100160000202020203030303030301020408102036
:10017000408001020408102001020408102041738D
:100180006B53696E2B2B2056322E312E3520284191
:10019000707220323020323031382031363A3133EB
:1001A0003A33352900000000000000000002140569
:1001B000050000000002010A01000000000000002C
:1001C0000000000000000000000000000006030521
:1001D000010101010A060101010501050A020602E9
:1001E0000200000000524553455400000000002466
:1001F0000027002A0000000000250028002B000036
:1002000000000800020100000304070000000000D5
:100210000000000A002D3E200000776169744163F0
:100220006B3A20003C2D20000A00232425260020C4
:100230006C6F6E6772656C656173656400206C6FCE
:100240006E677072657373656400206465626F75B4
:100250006E6365002070726573736564002072655B
:100260006C656173656400424F4F544C4F41444587
:10027000520069676E6F7265200048415645204400
:10028000415441002D3E20000A00F311014A504321
:1002900041504D3030303100F31110700101426196
:1002A000743A2000F320EB2011241FBECFEFD8E0DA
:1002B000DEBFCDBF12E0A0E0B1E0ECE3FCE402C0A1
:1002C00005900D92A838B107D9F724E0A8E8B2E06C
:1002D00001C01D92A338B207E1F711E0C3E5D1E0F8
:1002E00004C02197FE010E94C324C235D107C9F77B
:1002F0000E941D1B0C9411260C940000FC01118619
:1003000008950C945E250C945E250C945E250C9447
:100310005E250C945E250C945E258FE793E00E9489
:100320007D196FE773E08EE693E00C94B00BCF93EA
:10033000DF93EC01CB014A855B856C857D854D8320
:100340005E836F837887BE010E94B00BE881F981DC
:100350000680F781E02DCE0109958987DF91CF9145
:1003600008950F931F93CF938C0161E20E94231A8B
:10037000C82F62E2C8010E94231A2C2F30E0322FCE
:100380002227A901480F511DCA01CF911F910F913A
:10039000089524E731E0FC01318320830C94430F5E
:1003A000CF93DF93EC010E94C901CE01DF91CF9181
:1003B0000C945E250F931F93CF938C0165E20E94EE
:1003C000391AC82F66E2C8010E94391A2C2F30E072
:1003D000322F2227A901480F511DCA01CF911F9129
:1003E0000F9108950F931F93CF938C0163E20E94A6
:1003F000391AC82F64E2C8010E94391A2C2F30E044
:10040000322F2227A901480F511DCA01CF911F91F8
:100410000F9108950895089508950C94E6180C948A
:100420004419BC0180E090E04AE00E94F81881ED98
:1004300090E00C940F02CF92DF92EF92FF920F9315
:100440001F93CF93DF938C0188EB91E00E940D0204
:10045000E801EA9662E1CE010E94231A682F70E05B
:1004600080E090E04AE00E94F81888E292E00E9462
:100470000F0289EC91E00E940D0261E0CE010E9422
:10048000231AC12CD12C7601C394811103C0C12C35
:10049000D12C76014AE0C701B6010E94F8188FEC12
:1004A00090E00E940F0262E1CE010E94231AD8015F
:1004B0001296ED91FC91139785A38AED91E00E942D
:1004C0000D02CE010E94B101DF91CF911F910F91DA
:1004D000FF90EF90DF90CF900C9411021F93CF9379
:1004E000DF931F92CDB7DEB780917C00807380933D
:1004F0007C0080917C00806480937C0080917C00F3
:100500008E6080937C002FE78BE898E0215080403C
:100510009040E1F700C0000080917A0080648093F1
:100520007A0080917A0086FDFCCF6091780070910E
:10053000790085EF9BE20E949B24162F8FE990E0C3
:1005400079830E940F02812F7981972F0E941102D7
:10055000812F0F90DF91CF911F9108950F931F93DB
:10056000CF93DF9300D0CDB7DEB78C018CEE91E056
:100570000E940D0283ED90E00E940F0281E092E064
:100580000E940D02F801868597859A838983CE01A2
:1005900001960E94F2010E9411028EE092E00E94F8
:1005A0000D02F801868597859A838983CE0101968D
:1005B0000E94DA010E9411020F900F90DF91CF91FB
:1005C0001F910F9108950895EAE2F2E090E02491DE
:1005D000281731F09F5F31969430C9F78FEF089557
:1005E000892F08950F931F93CF93DF9300D0CDB73A
:1005F000DEB78C01862F4A830E94E4024A818F3F36
:1006000071F0F80160817181680F711D498341E0CB
:1006100050E0CE0101960E94F62281E001C080E008
:100620000F900F90DF91CF911F910F910895E1E30B
:10063000F1E090E02491281731F09F5F31969730D8
:10064000C9F78FEF0895892F0895862728E0BC0108
:1006500076956795AC014170552780FF02C041E057
:1006600050EACA0186279727215089F70895DC01AF
:1006700050E0681B790B9D01281B390B24173507A7
:1006800034F4FD01E60FF71FE491ED93F4CF0895E4
:1006900008950895FC01108211821282138216823D
:1006A0001582148211861086178212861386089589
:1006B000FC018081811109C08181811106C081E026
:1006C0009281911103C080E0089581E00895DC01DA
:1006D000FB019C91808198130BC011969C911197FE
:1006E0008181981305C081E012962C919281291383
:1006F00080E008954F925F926F927F928F929F92C7
:10070000AF92BF92CF92DF92EF92FF920F931F931F
:10071000CF93DF93CDB7DEB728970FB6F894DEBF3F
:100720000FBECDBF8C01DC011D968C9161E08C5F0A
:100730000E94320ABFEFE4E3FCE0B150E040F04039
:10074000E1F700C000003AE0D32EE12CF12CD801F3
:100750001D968C91835F0E949E0AE80EF91EEFE1C0
:10076000FEE43197F1F700C00000DA94D110EFCF2A
:10077000C7016AE070E00E949B247B01D8011D96AE
:100780008C9160E08C5F0E94320A88EB90E00E94BE
:100790000F02C7010E941102F801868597859A838E
:1007A0008983CE0101960E94F2015C01D8011E9658
:1007B0008D919C911F979E838D83CE0105960E94FB
:1007C000DA01A81AB90AF801868597859A83898380
:1007D000CE0101960E94DA01E81AF90A24E62E9D5C
:1007E000C0012F9D900D1124B5010E949B246536F8
:1007F00010F4261B01C020E0D801DC962C930E9447
:10080000CF2224E630E040E050E00E940E23F801C1
:1008100064AF8BEA90E00E940F02D8011D966C91A4
:1008200070E080E090E04AE00E94F81885EA90E0ED
:100830000E940F02F80164AD70E080E090E04AE0B1
:100840000E94F81888E292E00E940F02D8011996DF
:10085000ED91FC911A97C680C394C6821996ED91CA
:10086000FC911A97848195810E94B101009711F43F
:100870008EE190E02CE3289FB001299F700D112498
:1008800080E090E00E94A0232EEA37E441E65FE397
:100890000E94062420E030E048EC52E40E94062446
:1008A0000E947123F8016583768387839087B8015E
:1008B0008EE693E00E94B00BD8011996ED90FC9063
:1008C0001A97D7011296ED91FC911397D801DC96F7
:1008D0009C91DC971D968C9130A125A1321710F4C4
:1008E00020E8D22E2DE0F801208B20E7238B24E096
:1008F000228BD28EC18A138E948F858F5801F0E19E
:10090000AF0EB11C412CC12CD12C480129E0820E24
:10091000911C380184E1680E711C4C2DB401CE018C
:1009200005960E943711CE0105960E945803882330
:1009300009F48DC0512C452DB401CE0101960E94C1
:100940003711BE016F5F7F4FCE0105960E9467038E
:10095000811106C0539496E05912EDCF4FEF01C0BC
:10096000452D50E04C155D050CF471C01B821A82B8
:100970001982CE0101960E94700DBE016F5F7F4FFC
:10098000CE0105960E946703882309F442C0C30183
:100990000E94700DD80154968C91549757968C9361
:1009A000579755968C91559758968C93589756967D
:1009B0008C91569759968C9364E673E0C3010E941C
:1009C0006703882329F0F80182898F7D8460828BF8
:1009D000D80152968C91529785FF11C08F7D529607
:1009E0008C93D701ED91FC910680F781E02DB50144
:1009F000C7010995F80182898062828B28C0D701DE
:100A0000ED91FC910680F781E02DB501C7010995B4
:100A10001EC0AE014B5F5F4FB401CE0101960E9434
:100A20004F1189819A810E949F0DF801928980FF60
:100A300003C09061928B02C09F7E928BAE014B5F90
:100A40005F4FB501C7010E94501244244394BFEF89
:100A5000CB1ADB0AE6E0CE16D10409F05ECF4110D6
:100A600010C0D70114966D917C911597CE01019617
:100A70000E941411AE014F5F5F4FB501C7010E9484
:100A8000501228960FB6F894DEBF0FBECDBFDF918F
:100A9000CF911F910F91FF90EF90DF90CF90BF907B
:100AA000AF909F908F907F906F905F904F90089540
:100AB000FC013381FB012381321302C00C946703D4
:100AC00080E00895CF93DF9300D000D0CDB7DEB79C
:100AD000FC0180899485998395859A8396859B836B
:100AE0008C83882359F0BF01645F7F4FCE0101964C
:100AF0000E945805811102C082E001C081E00F9080
:100B00000F900F900F90DF91CF910895FC019FB748
:100B1000F894718360839FBF08952FB7F894FC0108
:100B2000808191812FBF0895CF92DF92EF92FF9243
:100B30000F931F93CF93DF9300D000D0CDB7DEB7D4
:100B40008C018EE693E049835A836B837C830E94F9
:100B50008D0549815A816B817C81009719F0FC01D8
:100B6000329702C0E0E0F0E0C12CD12C7601309742
:100B7000F9F085819681A781B085C80ED91EEA1E3D
:100B8000FB1EE017F107B9F0CF01029649835A83A3
:100B90006B837C830E948D0549815A816B817C81A6
:100BA000009719F0FC013297E2CFE0E0F0E0DFCFF0
:100BB000C12CD12C7601C416D506E606F70620F521
:100BC00081E0F8018187C80149835A836B837C8364
:100BD0000E947D1949815A816B817C81F80145838E
:100BE000568367837087B8018EE693E00F900F906D
:100BF0000F900F90DF91CF911F910F91FF90EF9089
:100C0000DF90CF900C94B00B0F900F900F900F903F
:100C1000DF91CF911F910F91FF90EF90DF90CF90D8
:100C20000895EF92FF920F931F93CF93DF93EC0100
:100C3000FFB6F8940E948D058C01892B61F0EFB608
:100C4000F894CE010E948D050E948D05BC01CE0155
:100C50000E948605EFBEFFBEC801DF91CF911F91B4
:100C60000F91FF90EF900895CF92DF92EF92FF9255
:100C70006B017C0180E1C816D104E104F10418F491
:100C800083E890E036C08FEFC816D104E104F10488
:100C900009F018F48CE790E02CC0C11480E1D8066C
:100CA000E104F10418F486E790E023C0C114D104F4
:100CB00081E0E806F10418F481E790E01AC0C1145D
:100CC000D10480E1E806F10418F48DE690E011C04B
:100CD000C114D104E10481E0F80618F48AE690E03A
:100CE00008C0C114D104E10480E1F80620F488E6CC
:100CF00090E00E94441940E1C701B601FF90EF90D7
:100D0000DF90CF900C94F818CF93C82F803118F44F
:100D100080E30E9439196C2F70E080E090E040E1A0
:100D2000CF910C94F818EF92FF920F931F93CF93EB
:100D3000DF93EC0188810E9484068DE990E00E9497
:100D40000F0289810E9484068BE990E00E940F02C5
:100D50008A810E94840689E990E00E940F028B81BB
:100D60000E94840687E990E00E940F028C810E9415
:100D700084068D810E9484068E810E94840685E906
:100D800090E00E940F028F810E94840688850E9455
:100D9000840689850E94840683E990E00E940F0200
:100DA000088109502A967E0110E0C7018C1B9D0B1B
:100DB0008017910754F4F70181917F010E94840606
:100DC0008BE890E00E940F02F0CF8FE890E00E9445
:100DD0000F022FB7F8946091BE027091BF0280910C
:100DE000C0029091C1022FBF4AE00E94F8188DE81E
:100DF00090E0DF91CF911F910F91FF90EF900C94B5
:100E00000F021F920F920FB60F9211242F933F9350
:100E10004F935F936F937F938F939F93AF93BF9302
:100E2000CF93EF93FF9329B1C0918A029091B802BA
:100E30008091B502322F309583239223892B909194
:100E40006D00C227C923C82320938A02CC23C1F195
:100E5000C0FF05C0E0918B02F0918C020995C1FFA3
:100E600005C0E0918D02F0918E020995C2FF05C088
:100E7000E0918F02F09190020995C3FF05C0E091C7
:100E80009102F09192020995C4FF05C0E09193028E
:100E9000F09194020995C5FF05C0E0919502F0918B
:100EA00096020995C6FF05C0E0919702F09198025D
:100EB0000995C7FF05C0E0919902F0919A02099542
:100EC000FF91EF91CF91BF91AF919F918F917F91C2
:100ED0006F915F914F913F912F910F900FBE0F90A7
:100EE0001F9018951F920F920FB60F9211242F93F7
:100EF0003F934F935F936F937F938F939F93AF93A2
:100F0000BF93CF93EF93FF9326B1C0919B02909133
:100F1000B9028091B602322F309583239223892B18
:100F200090916C00C227C923C82320939B02CC2335
:100F300051F1C0FF05C0E0919C02F0919D0209951E
:100F4000C1FF05C0E0919E02F0919F020995C2FF8A
:100F500005C0E091A002F091A1020995C3FF05C070
:100F6000E091A202F091A3020995C4FF05C0E091AF
:100F7000A402F091A5020995C5FF05C0E091A60263
:100F8000F091A7020995FF91EF91CF91BF91AF9199
:100F90009F918F917F916F915F914F913F912F9191
:100FA0000F900FBE0F901F9018951F920F920FB6C3
:100FB0000F9211242F933F934F935F936F937F93DF
:100FC0008F939F93AF93BF93CF93EF93FF9323B1EF
:100FD000C091A8029091BA028091B702322F309549
:100FE00083239223892B90916B00C227C923C823A6
:100FF0002093A802CC2351F1C0FF05C0E091A902C3
:10100000F091AA020995C1FF05C0E091AB02F091F1
:10101000AC020995C2FF05C0E091AD02F091AE02AD
:101020000995C3FF05C0E091AF02F091B0020995A8
:10103000C4FF05C0E091B102F091B2020995C5FF6D
:1010400005C0E091B302F091B4020995FF91EF91D0
:10105000CF91BF91AF919F918F917F916F915F9150
:101060004F913F912F910F900FBE0F901F901895A9
:10107000CF92DF92EF92FF920F931F93CF93DF9364
:101080006C017A018B01C0E0D0E0CE15DF0589F05C
:10109000D8016D918D01D601ED91FC910190F08107
:1010A000E02DC6010995892B11F47E0102C021961D
:1010B000ECCFC701DF91CF911F910F91FF90EF907F
:1010C000DF90CF900895089580E090E00895FC01AE
:1010D000538D448D252F30E0842F90E0821B930B9D
:1010E000541710F0CF96089501970895FC01918D43
:1010F000828D981761F0828DDF01A80FB11D5D967A
:101100008C91928D9F5F9F73928F90E008958FEFE7
:101110009FEF0895FC01918D828D981731F0828D9B
:10112000E80FF11D858D90E008958FEF9FEF0895F2
:10113000FC01918D228D892F90E0805C9F4F821B56
:1011400091098F739927089587EC92E00E9498087F
:1011500021E0892B09F420E0822F0895FC01848D81
:10116000DF01A80FB11DA35ABF4F2C91848D90E0D1
:1011700001968F739927848FA689B7892C93A089AC
:10118000B1898C9180648C93938D848D981306C063
:101190000288F389E02D80818F7D80830895EF920E
:1011A000FF920F931F93CF93DF93EC0181E0888F21
:1011B0009B8D8C8D981305C0E889F989808185FD08
:1011C00024C0F62E0B8D10E00F5F1F4F0F731127F9
:1011D000E02E8C8DE8120CC00FB607FCFACFE88920
:1011E000F989808185FFF5CFCE010E94AE08F1CF4D
:1011F0008B8DFE01E80FF11DE35AFF4FF0820B8F3C
:10120000EA89FB898081806207C0EE89FF8960835B
:10121000E889F98980818064808381E090E0DF91B2
:10122000CF911F910F91FF90EF900895CF93DF938F
:10123000EC01888D8823C9F0EA89FB89808185FDCE
:1012400005C0A889B9898C9186FD0FC00FB607FC2F
:10125000F5CF808185FFF2CFA889B9898C9185FF70
:10126000EDCFCE010E94AE08E7CFDF91CF91089578
:1012700080E090E0892B29F00E94A40881110C9451
:1012800000000895833081F028F4813099F0823095
:10129000A1F008958730A9F08830B9F08430D1F4F6
:1012A000809180008F7D03C0809180008F77809334
:1012B0008000089584B58F7702C084B58F7D84BD8A
:1012C00008958091B0008F7703C08091B0008F7D2A
:1012D0008093B000089508950E94F625FF920F9321
:1012E0001F93CF93DF93EC018B01FFB6F8940E941C
:1012F0008D05BC01C8010E948605B801CE010E947F
:101300008605FFBEDF91CF911F910F91FF90089549
:101310000C9417031F93CF93DF93EC011FB7F8943E
:1013200099898985981720F4CE010E94231014C052
:10133000198A9A859923C1F38A898F5F8A8B8917C5
:1013400098F3CE010E94191048E050E065EA71E080
:10135000CE0109960E94DD221FBFDF91CF911F9120
:1013600008951F920F920FB60F9211242F933F935F
:101370004F935F936F937F938F939F93AF93BF939D
:10138000EF93FF9387EC92E00E94AE08FF91EF91FC
:10139000BF91AF919F918F917F916F915F914F918D
:1013A0003F912F910F900FBE0F901F9018951F9295
:1013B0000F920FB60F9211242F938F939F93EF9359
:1013C000FF93E091D702F091D8028081E091DD0295
:1013D000F091DE0282FD12C090818091E0028F5F69
:1013E0008F732091E102821751F0E091E002F0E06A
:1013F000E953FD4F958F8093E00201C08081FF91FA
:10140000EF919F918F912F910F900FBE0F901F9092
:101410001895CF93DF93282F30E0F901E150FE4F6C
:101420008491F901E659FE4FD491F901EA5AFE4F31
:10143000C491CC2391F081110E944209EC2FF0E07D
:10144000EE0FFF1FE85CFE4FA591B491EC91ED23E8
:1014500081E090E021F480E002C080E090E0DF9144
:10146000CF9108951F93CF93DF93282F30E0F90198
:10147000E150FE4F8491F901E659FE4FD491F901F4
:10148000EA5AFE4FC491CC23C9F0162F81110E9455
:101490004209EC2FF0E0EE0FFF1FEB50FE4FA5913D
:1014A000B4918FB7F894111105C09C91ED2FE09580
:1014B000E92302C0EC91ED2BEC938FBFDF91CF912C
:1014C0001F910895CF93DF9390E0FC01E659FE4F02
:1014D0002491FC01EA5AFE4F8491882361F190E047
:1014E000880F991FFC01E551FE4FC591D491FC0175
:1014F000EB50FE4FA591B491611109C09FB7F894CC
:101500008881209582238883EC912E230BC0623042
:1015100061F49FB7F8943881822F80958323888364
:10152000EC912E2B2C939FBF06C08FB7F894E881C7
:101530002E2B28838FBFDF91CF9108958E3008F036
:101540008E508770806480937C0080917A008064E4
:1015500080937A0080917A0086FDFCCF809178009C
:101560002091790090E0922B08951F920F920FB670
:101570000F9211242F933F938F939F93AF93BF9319
:101580008091BE029091BF02A091C002B091C102B1
:101590003091C60226E0230F2D3720F40296A11DBC
:1015A000B11D05C029E8230F0396A11DB11D20938D
:1015B000C6028093BE029093BF02A093C002B09374
:1015C000C1028091C2029091C302A091C402B09165
:1015D000C5020196A11DB11D8093C2029093C30262
:1015E000A093C402B093C502BF91AF919F918F9118
:1015F0003F912F910F900FBE0F901F9018951F9243
:101600000F920FB60F9211242F933F934F935F9336
:101610006F937F938F939F93AF93BF93EF93FF93BA
:10162000E0910201F09103010995FF91EF91BF91C3
:10163000AF919F918F917F916F915F914F913F916A
:101640002F910F900FBE0F901F9018951F920F9221
:101650000FB60F9211242F933F934F935F936F9385
:101660007F938F939F93AF93BF93EF93FF93E091FB
:101670000001F09101010995FF91EF91BF91AF91A8
:101680009F918F917F916F915F914F913F912F919A
:101690000F900FBE0F901F9018951F920F920FB6CC
:1016A0000F9211248F930FB6F894A8958091600043
:1016B000886180936000109260000FBE8F910F9040
:1016C0000FBE0F901F9018954115510529F4EAE7B8
:1016D000F0E080818F7780836A307105A9F063FD27
:1016E00002C088E001C088E26770682B88E10FB60D
:1016F000F894A895809360000FBE60936000E0E6C8
:10170000F0E0808180648083232BA1F483B7817F04
:10171000846083BFF89483B7816083BF85B7806698
:1017200085BF8F7D85BF7894889583B78E7F83BF73
:1017300078940EC083B7817F846083BFF89483B7A9
:10174000816083BF7894889583B78E7F83BF7894B8
:10175000452B29F4EAE7F0E08081806880830895D2
:101760004F925F926F927F92BF92CF92DF92EF92F1
:10177000FF920F931F93CF93DF938B01FB01458162
:10178000568167817085452B462B472B09F45AC03B
:10179000BFB6F8947C010E948D05009719F0EC010A
:1017A000229702C0C0E0D0E02097E1F04D805E803B
:1017B0006F807884F8014581568167817085CE01FC
:1017C0000296441655066606770650F444195509E4
:1017D00066097709F8014583568367837087DACFF6
:1017E000BC0102C060E070E06801F2E0CF0ED11CE5
:1017F000C6010E948605B601C7010E948605209792
:1018000079F4BFBEDF91CF911F910F91FF90EF90C0
:10181000DF90CF90BF907F906F905F904F90089532
:101820008D819E81AF81B885F801458156816781A0
:101830007085841B950BA60BB70B8D839E83AF839E
:10184000B887DFCFB8016E5F7F4F0296DF91CF91EF
:101850001F910F91FF90EF90DF90CF90BF907F90FE
:101860006F905F904F900C946E09CF92DF92FF9231
:101870000F931F93CF93DF938C01FFB6F8940E94D0
:101880008D050097B9F1EC012297A1F18D819E8120
:10189000AF81B8850197A109B1098D839E83AF837C
:1018A000B887680182E0C80ED11C8D819E81AF810E
:1018B000B885892B8A2B8B2BE9F4C8010E9411066D
:1018C0008C81882349F0E881F9810190F081E02D35
:1018D000B801CE01099506C0BE016E5F7F4FC601FB
:1018E0000E946E09C8010E948D05009719F0EC0155
:1018F0002297D9F6FFBEC801DF91CF911F910F91BA
:10190000FF90DF90CF9008951F920F920FB60F9225
:1019100011242F933F934F935F936F937F938F93F4
:101920009F93AF93BF93EF93FF93E9E6F3E0848136
:101930008F5F8483CF010E94350CFF91EF91BF919F
:10194000AF919F918F917F916F915F914F913F9157
:101950002F910F900FBE0F901F9018951F920F920E
:101960000FB60F9211242F933F934F935F936F9372
:101970007F938F939F93AF93BF93CF93DF93EF9317
:10198000FF938EE693E00E94350C87E693E00E9479
:101990008D05EC01892B79F18E819F81A885B98510
:1019A0000196A11DB11D8E839F83A887B9874A81A7
:1019B0005B816C817D81811528E09207A105B105CD
:1019C00079F481E0452B462B472B09F480E0682F02
:1019D0008A850E94320A1E821F821886198609C0D3
:1019E00084179507A607B70721F460E08A850E944F
:1019F000320ACE01CCCFFF91EF91DF91CF91BF9111
:101A0000AF919F918F917F916F915F914F913F9196
:101A10002F910F900FBE0F901F901895663050F4C5
:101A2000FC01808191810496F6E06F9F800D911DED
:101A30001124089580E090E008958EBD0DB407FE56
:101A4000FDCF8EB5089561E08AE00C94320A8CE0F7
:101A50000E94090A8111FBCF089560E08AE00C948E
:101A6000320ACF93DF931F92CDB7DEB789830E94EE
:101A70002D0D0E94270D89810E941D0D89830E94D2
:101A8000230D89810F90DF91CF91089586E30E9405
:101A9000310D8DE30E94310D8AE30C94310DCF930B
:101AA000DF9300D0CDB7DEB769838A830E942D0D06
:101AB0000E94270D69818A81862B0E941D0D80E07E
:101AC0000E941D0D8A830E94230D8A810F900F9022
:101AD000DF91CF9108954AE062EF7FE70C943703DE
:101AE00043E06CEF7FE70C943703EF92FF920F9384
:101AF0001F93CF93DF931F92CDB7DEB77C01E60E25
:101B0000F71E8C010E151F0559F0198241E050E0B7
:101B1000B801CE0101960E94F6220F5F1F4FF2CF4F
:101B200081E00F90DF91CF911F910F91FF90EF9087
:101B30000895EFE6F0E08081816080830895CF937F
:101B4000DF931F92CDB7DEB7198241E050E0BC01B0
:101B5000CE0101960E94E62289810F90DF91CF91FC
:101B60000895EF92FF921F93CF93DF9300D000D0A0
:101B7000CDB7DEB77C0110E0412FB701CE01019651
:101B80000E943711CE0101960E945803882321F04C
:101B90001F5F163089F71FEF812F0F900F900F9066
:101BA0000F90DF91CF911F91FF90EF900895AF922A
:101BB000BF92CF92DF92FF920F931F93CF93DF9349
:101BC000CDB7DEB729970FB6F894DEBF0FBECDBFF5
:101BD000FC0121110DC082AD93AD9A83898387E00A
:101BE0008B838CE29FE09D838C8388E899E061C0C1
:101BF000662319F081AD861740F41A8219821B8280
:101C00001D821C821F821E8256C004AD15AD21307C
:101C100071F4F801868597859A83898384E08B83A4
:101C200082E29FE09D838C8387E190E142C06A015C
:101C30002330B1F0243009F7B801675F7F4FCE0140
:101C400008960E944F11888599859A83898381E03F
:101C50008B8388E19FE09D838C8382E19FE029C094
:101C6000580189E0A80EB11CF12C4F2DB501CE0111
:101C700001960E943711B601CE0101960E945805C7
:101C8000882339F06F2DC8010E960E940E0D049620
:101C900006C0F394F6E0FF12E8CF80E090E09A836C
:101CA000898381E08B8380E29FE09D838C838EE13A
:101CB0009FE09F838E8329813A814B815C816D8176
:101CC0007E818F8190E029960FB6F894DEBF0FBE1B
:101CD000CDBFDF91CF911F910F91FF90DF90CF90FB
:101CE000BF90AF900895AF92BF92CF92DF92EF92E4
:101CF000FF921F93CF93DF9300D000D0CDB7DEB714
:101D00007C016B0110E05C0185E0A80EB11C412F45
:101D1000B701CE0101960E943711B601CE0101969E
:101D20000E945805882379F01B821A8219821C822E
:101D3000612FC5010E940E0D44E050E0BC01CE01B0
:101D400001960E94F6221F5F163009F781E00F907E
:101D50000F900F900F90DF91CF911F91FF90EF9018
:101D6000DF90CF90BF90AF9008950F931F93CF93C4
:101D7000DF93EC018B018AE18B871E861D864C87E1
:101D80001E8A8FA998ADFC01719624913197849198
:101D90008D8B2AA342E060EF7FE7CE0146960E943A
:101DA0003703CE0148960E946B0D89AD8BA38FA996
:101DB00098ADBC016E5E7F4F42E050E0CE0184964C
:101DC0000E94DD22BE01655F7F4FA801CE01DF9139
:101DD000CF911F910F910C945012CF93DF93EC0190
:101DE00085EE91E00E94C21188E10E9417038F3FA7
:101DF00059F464E070E080E090E00E94750DE0E04E
:101E0000F0E0DF91CF9109942AAD3BADA901480FD5
:101E1000511DCA010E949F0D80FFEBCFDF91CF9132
:101E200008950895813011F08FEF089580E00895AE
:101E3000882311F08FEF089581E008958FEF0895C2
:101E40008FEF0895843030F4E82FF0E0E65DFD4F29
:101E5000849108958FEF0895873030F4E82FF0E0F3
:101E6000EF5CFE4F849108958FEF0895E091880212
:101E7000F09189028685811102C081E085870895ED
:101E800080E0089508950F931F93CF93DF9328E682
:101E900031E0FC01318320838C010A5B1F4F79F014
:101EA000EC01CD57DF4FC017D10749F0ED97E8811E
:101EB000F9810280F381E02DCE010995F4CFDF9105
:101EC000CF911F910F9108951F93CF93DF93EC0152
:101ED000FB012985922F9770943061F028F492309D
:101EE00039F0933079F030C0953061F0963061F57B
:101EF00011E01BC023FD0CC04B855C85455051098A
:101F000013E01EC023FD20C04B855C8515E018C082
:101F100045E050E012E060E070E04D835E836F8347
:101F20007887BE01CF010E94B00BE881F98106805D
:101F3000F781E02D612FCE01DF91CF911F910994A0
:101F40004115510541F7F1CFDF91CF911F910895D0
:101F5000EF92FF920F931F93CF93DC0119960D918F
:101F60001C911A97F80182850E94090AD8011996D6
:101F7000CC911997C3FBEE24E0F8F12C9C01332798
:101F8000E216F306E1F180FBC3F91996CC93C77012
:101F9000C33029F0C53019F0C130D9F408C0F801B8
:101FA000818583FF16C0C33041F1C6E001C0C4E0A3
:101FB000C8010E947D1985E090E0A0E0B0E0F80142
:101FC00085839683A783B087B8018EE693E00E944D
:101FD000B00BD80119968C9119978770C81779F0B2
:101FE000ED91FC910680F781E02D6C2FC801CF9117
:101FF0001F910F91FF90EF900994C2E0D9CFCF913C
:102000001F910F91FF90EF9008950C945E250C9412
:102010005E250C945E250C945E25CF93DF93EC0136
:102020000E94430FCE01DF91CF910C945E250C945A
:10203000E402FC018489882311F061E001C060E0C2
:1020400083890C94320AEF92FF921F93CF93DF9310
:10205000EC017B01998911E0190F198BFE01E90F41
:10206000F11D238530E0A4E6B0E00E9462232AE05F
:1020700030E040E050E00E9440232D833E834F83B8
:10208000588710FF0AC08C89882311F060E001C0D6
:1020900061E08B890E94320A03C0CE010E941910B0
:1020A000BE01C701DF91CF911F91FF90EF900C947B
:1020B000B00BAF92BF92CF92DF92EF92FF920F934D
:1020C0001F93CF93DF93EC018D85882309F48CC097
:1020D0007B011D866E0181E1C80ED11C60EC8BE393
:1020E0000E944F0D18160CF047C060E88FE30E9465
:1020F0004F0D182F8A3288F50E942D0D0E94270D52
:102100008FEF0E941D0D0C2D56018A2D801B81170B
:1021100038F480E00E941D0DF50181935F01F5CF39
:102120000E94230D60E88FE30E944F0D87FD80958C
:102130008B878B858695885B8B8760E88FE30E9411
:102140004F0D982F9F779C8787FD17C08EE492E0F4
:102150000E940D0283ED90E00DC089E592E00E949F
:102160000D02612F70E080E090E04AE00E94F818D4
:1021700088E292E00E940F0210E08AE30E94310D93
:102180008BE791E00197F1F700C000000E94460D37
:1021900084E30E94310D112319F1188B898996E788
:1021A0009827998B91E0412F50E0BA016150710955
:1021B000292F30E0F601E20FF31F261737073CF412
:1021C00020818452822780839F5F822FF1CF90816C
:1021D0008A8989278083B601C70101960E94082653
:1021E000F7011083188A8081DF91CF911F910F91A1
:1021F000FF90EF90DF90CF90BF90AF900895CF9376
:10220000DF93EC01CB01463018F080E090E005C090
:10221000642F05960E940E0D049699838883CE0143
:10222000DF91CF9108950895EF92FF920F931F933E
:10223000CF93DF93EC018B016CE0C8010E94231A5D
:10224000F82E6BE0C8010E94231AE82E6AE0C8014C
:102250000E94231A8883E982FA82CE01DF91CF910E
:102260001F910F91FF90EF90089508950895CF93D7
:10227000DF93EC01CB011A82198218821B82642F32
:1022800005960E940E0D009731F044E050E0BC012D
:10229000CE010E94E622CE01DF91CF910895AF9248
:1022A000BF92CF92DF92EF92FF921F93CF93DF9373
:1022B00000D000D0CDB7DEB77C016B015A0110E031
:1022C000412FB601CE0101960E943711B501CE0112
:1022D00001960E945805882339F0612FC6010596A2
:1022E0000E940E0D059605C01F5F163049F780E06D
:1022F00090E0F70191838083C7010F900F900F90BA
:102300000F90DF91CF911F91FF90EF90DF90CF90D2
:10231000BF90AF900895EF92FF920F931F93CF93CA
:10232000DF93EC018B017C018FEFE81AF80AC701FB
:102330000E947D19C7010E941910B80183E0660F41
:10234000771F8A95E1F76B557E4F48E050E0CE014C
:102350000A960E94DD228A85882369F01A8A1B8AE0
:102360006EE673E0C701DF91CF911F910F91FF904F
:10237000EF900C942310DF91CF911F910F91FF905C
:10238000EF9008950E940F0283E192E00C940F02F7
:102390000F931F93CF938C01C62F643091F038F4C4
:1023A000623061F0633099F484E592E012C06530E8
:1023B00059F0663061F48FE292E00BC08DE592E057
:1023C00008C08AE492E005C08DE392E002C08EE28C
:1023D00092E00E94C211C770F8019185987FC92BC5
:1023E000C187CF911F910F9108950F931F93CF93A2
:1023F000DF9300D000D01F92CDB7DEB78C01362F0F
:10240000FC01218527702C833D830E94C8113D81EA
:102410002C81323049F5F801008D118DF80146818B
:102420004F5F468364817581CE0101964C830E9483
:1024300014114C81BE016F5F7F4FC8010E94B50E21
:10244000F8018281938161E070E001960E948B1116
:10245000F8018281938140ED57E060E070E08C5993
:102460009F4F0E94940512C0353081F4F801808D91
:10247000918D253019F40E94ED0E08C0FC01828177
:10248000938167E070E001960E948B110F900F908E
:102490000F900F900F90DF91CF911F910F910895A2
:1024A0002F923F924F925F926F927F928F929F9264
:1024B000AF92BF92CF92DF92EF92FF920F931F9352
:1024C000CF93DF93CDB7DEB7E0970FB6F894DEBFBA
:1024D0000FBECDBF5C018B01FA018081DB01179635
:1024E0008C931797818118968C93189782811996EF
:1024F0008C9364E673E0CA010E946703882329F085
:10250000F80182818F7D84608283C80104960E94D5
:10251000700DD80112968C911297806812968C9348
:10252000F5018281938162E070E001960E948B1137
:1025300036E0C32EC80101969EA78DA74AE0242E3F
:10254000312C412C512C380197E0690E711CD801B7
:1025500012968C91129780718CA7F501E280F3801E
:102560004701FBE38F0E911C4C9150E06DA57EA5B9
:10257000C4010E940826D8018C91F70182AF43ADB7
:10258000F6E74F27D701DB964C93DB97DC965C91FF
:1025900061E090E00197262F30E0F401E20FF31F95
:1025A0002817390734F444522081422740836F5F53
:1025B000F2CF808158275083F701F2ADFBA7D701F6
:1025C000D3968C91882329F022E02A95F1F700C058
:1025D000F6CFF70127A630AA41AA52AA21E023ABE1
:1025E000B701665D7F4F8EE693E00E94B00BD70186
:1025F000D9968C91882369F00E942D0D0E94270D99
:102600000E94230D0E94460D84E30E94310DF701C4
:1026100011AEE1E0D701D896EC9386E30E94310D2C
:102620008BE30E94310D28ECD22E85E30E94310D00
:1026300087EC90E00197F1F700C00000DA94D11028
:1026400016C086E30E94310D8BE30E94310D8DE3AD
:102650000E94310D84E30E94310D60EC85E30E94FD
:102660004F0D8D30B9F7D701D8961C9256C060EC4B
:1026700085E30E944F0D8331C1F6EFE1FEE431970F
:10268000F1F700C000002CA5222349F08FE79BE85A
:10269000A8E081509040A040E1F700C000000E94F7
:1026A0002D0D0E94270D8FE30E941D0D8BA50E940A
:1026B0001D0D0E94230D0E942D0D0E94270D8FE7F6
:1026C0000E941D0DD82C9401822F8D19FBA58F1708
:1026D00050F4F90181919F01EFA738AB0E941D0DC5
:1026E00038A92FA5F1CF0E94230D98ECD92E60ECCC
:1026F00085E30E944F0D8D3031F4D701D8961C929E
:10270000DD24D3940AC0E7ECF0E03197F1F700C084
:102710000000DA94D110EBCFF0CFFD2DF170FF2E39
:1027200084E292E00E940F02C8010E949306DD201D
:1027300079F1D80112968C9185FF2AC0C3010E94BD
:102740005803882329F1CE0101960E944A038CE3A5
:10275000F82EF50182819381BE016F5F7F4F8A96CB
:102760000E945910811121C08FE19EE40197F1F779
:1027700000C00000FA94F110ECCF8AE192E00E94D0
:102780000F028F2D0E94840689E192E00E94C211FF
:10279000D50112968D919C911397F11039C0CA946E
:1027A000C110D5CE64E070E035C085E192E00E94B2
:1027B0000F02CE0101960E949306D80111969C91BA
:1027C0008A819813D1CFBE016B5F7F4FC3010E94F6
:1027D0006703882349F28C81823031F4FB84F094C2
:1027E000FF1CFF24FF1C01C0F12CF801828181FD38
:1027F00003C08B8180FFC1CFF5018281938142E3C9
:1028000050E060E070E08C599F4F0E949405B5CF76
:1028100063E070E001960E948B118F2DE0960FB659
:10282000F894DEBF0FBECDBFDF91CF911F910F9106
:10283000FF90EF90DF90CF90BF90AF909F908F90E0
:102840007F906F905F904F903F902F9008952F92C0
:102850003F924F925F926F927F928F929F92AF9230
:10286000BF92CF92DF92EF92FF920F931F93CF937D
:10287000DF93CDB7DEB7E4970FB6F894DEBF0FBE97
:10288000CDBF7C018B0119AA18AA1FA6CE018F9675
:102890000E94700D180127E0220E311CBE01615DFF
:1028A0007F4FC1010E946703C82E882349F1D701D9
:1028B0001296CD90DC9013975601BAE2AB0EB11C84
:1028C000C5010E947D198AE090E0A0E0B0E0F60129
:1028D00087A790ABA1ABB2AB81E083ABB5018EE62D
:1028E00093E00E94B00B84E892E00E940F02C801BE
:1028F0000E949306D80112968C9186FD45C056C061
:10290000F8018081898381818A83B280BB8223819F
:102910002C8384818D8385818E8386818F838781BB
:1029200088878085898781858A8782858B87A3842C
:10293000AC868EE13C96DE011D9601900D928A9543
:10294000E1F764E673E0CE0108962CAB0E946703C2
:10295000D82E2CA9882329F0213019F4FAE0AF16DB
:1029600049F0B2FE06C02054CC24C394223008F0B3
:10297000C12CDC2CD1109BCF82E792E00E940F0289
:10298000C8010E94930608C4B8016C5F7F4FC7015D
:1029900007960E946703882349F0D7011A969C91F5
:1029A000F8018181981302C0D12CF6C3F80184810B
:1029B000D70117968C931797858118968C93189743
:1029C000868119968C93199781811A968C9393819D
:1029D000328583859130A1F48A3009F09AC0CE0106
:1029E00001960E946B0D4AE050E0BE016F5F7F4F81
:1029F000C8010C960E94FB25892B09F4DFC08DC00D
:102A00009131B9F5343011F03A3C51F58AE0D801F2
:102A10008C9382E013968C93139712961C921297C4
:102A20001A961C92A8014C5F5F4FB801C7013CABDE
:102A30000E9450123CA93A3C79F487E692E00E9449
:102A4000C2119CE088E10FB6F894A89580936000CD
:102A50000FBE90936000FFCFC7010E94ED0E69C0CA
:102A6000882309F466C0F70191AD981708F461C096
:102A700059C3923139F48AE792E00E94C211C12C05
:102A8000D12C69C39054923008F047C05524539418
:102A9000612CC12CD12C22E0D701D9968C918515BF
:102AA00090F1F70184AC95ACD4011C968C91811106
:102AB00028C0F80182858F7394819BA795819CA77C
:102AC00096819DA78EA75401F9E0AF0EB11C712C21
:102AD000472DB501CE0101962CAB0E943711BE01E6
:102AE0006F5F7F4FCE018B960E9458052CA98111F4
:102AF00005C0739436E07312EBCF03C06394640196
:102B000021E05394C9CFB1E0B615B0F4C12CD12C5B
:102B100013C0813031F431116FC0C12CD12C22E0AF
:102B20000BC0823009F46FC0833009F0DFC031116F
:102B300073C0C12CD12C20E0F801828185FF2EC00A
:102B4000BE01615D7F4FC1012CAB0E9467032CA9C0
:102B5000882321F1213009F00DC3A8014C5F5F4F9C
:102B6000C114D10409F4F9C2D7011296ED91FC9178
:102B7000139785A99EE0F801908392E093831282D7
:102B80002287D6011D969C91938714861586868789
:102B9000B801C7010E945012F6011386D7011296A0
:102BA0008D919C91139742E350E060E070E08C5966
:102BB0009F4F0E949405DD24D394EEC2F7018281D9
:102BC000938161E070E001960E948B11D70112960B
:102BD0008D919C91139740ED57E060E070E08C5927
:102BE0009F4F0E949405F8014081B8016C5F7F4FB0
:102BF000C7010E94B50E9DCFD701D9968C9183173E
:102C000008F48BCFA6C1332309F487CFF70181AD38
:102C1000831708F482CF24C2F70181AD831708F42B
:102C200088CFF70164AC75ACD80111968C911197DF
:102C300014962C9114972BA715962C9115972CA7C9
:102C400016962C912DA75701BBE0AB0EB11C2AE1C3
:102C5000238720E1268720E22587958B84874701FB
:102C6000E6E18E0E911C6401512C412CF9E06F0EAF
:102C7000711C442DB301CE0101960E943711CE0183
:102C800001960E9458038823C9F089819A81AB81FB
:102C9000BC81F60181939193A193B1936F015394F9
:102CA000F4E05F120BC0AE01455D5F4FB501C70197
:102CB0000E9450126401512C882321F0439426E095
:102CC0004212D7CFD6011D921D921D921C921397CE
:102CD000852D880F880F825FF701838785858F7D1B
:102CE0008587AE01455D5F4FB5012FC1843009F086
:102CF00083C0D80150962C91A801445F5F4F632F89
:102D0000C7010E94D70D29833A834B835C836D836F
:102D10007E838F8329813A813BAB2AAB232B09F435
:102D200069C0D80111968C91119714969C911497B3
:102D30009BA715969C9115979CA716969C919DA76D
:102D40004701BBE08B0E911C9AE1F701938790E15C
:102D5000968790E2958792E0958B84876701F6E1EC
:102D6000CF0ED11C3601A12CB12C40E02B8130E0DC
:102D7000A216B3063CF5EC81FD818A2D4CAB09957A
:102D8000D3018C932301B2E04B0E511C8AA99BA95D
:102D90008A0D9B1D0E949F0DF30181834CA94F5FFB
:102DA000483059F4AE01455D5F4FB401C7010E9440
:102DB0005012882349F0260140E0FFEFAF1ABF0A06
:102DC0003201D4CF630101C040E0D6011C921196BC
:102DD0001C92842F880F845FF701838785858F7D00
:102DE0008587AE01455D5F4FB401C7010E94501257
:102DF00020E08CCE22E08ACE8E3049F5D701DC96D9
:102E0000CD90DC90DD97F80131811296ED91FC9127
:102E1000139795A9D6011D962C91F701838780E120
:102E2000868786E0858B3487268B178A108E918F54
:102E300082E08587A8014C5F5F4FB701655F7F4FD8
:102E4000C7010E945012D6011B961C9272CE85308B
:102E5000E1F4F70136AFD80150962C91A801445FF8
:102E60005F4F632FC7010E94D70DF70127AFE05CCA
:102E7000FF4F308331964083319650833196608383
:102E80003196708331968083FACD863099F5F701BB
:102E9000FF9620813181D701DA968D919C91DB9745
:102EA0002817390791F412968D919C91139760E041
:102EB00070E001960E948B11D701ED91FC91048086
:102EC000F581E02DC701099505C0F70184AD95ADE9
:102ED0000E94AE028FEFD701DE968C938AE0F80154
:102EE000808382E0838382831286A8014C5F5F4FD8
:102EF000B8012BC0883081F4D701DE968C91831302
:102F0000BECD6701BFE3CB0ED11CF601808191815C
:102F1000892B09F0D5C0B3CD893009F0FECDD80199
:102F200011968C9194E1F701938790E1968715862D
:102F3000158A8487168AC70146960E946B0DA801E0
:102F40004C5F5F4FB701655F7F4FC7010E94501212
:102F5000F0CDD701DC96CD90DC90DD97C8010E94C2
:102F60006205F8013C964F019601275F3F4F5901DA
:102F70008130E1F4B401C5010E94730EC5010E94C5
:102F8000B10D782EBFEF8B1709F4C9CD682FC6019C
:102F90000E960E940E0D44E050E0BC01C4010E9458
:102FA000F622472DB501CE0101964AC0F80180896D
:102FB0009485998395859A8396859B838C83B401A8
:102FC000C5010E94730EBE016F5F7F4FC5010E9455
:102FD000730EC5010E94B10D582EFFEF8F1709F433
:102FE0009ECD36012EE0620E711C682FC3010E9437
:102FF0000E0D44E050E0BC01C4010E94F622C50160
:103000000E94B10D482E3FEF831729F1682FC301AD
:103010000E940E0D44E050E0BC01CE0101960E94DA
:10302000F622D8011F968C9180FF0DC0452DB50169
:10303000CE018B960E94FF10442DB501CE018B96D8
:103040000E94FF1039C0442DB501CE018B960E941D
:10305000FF10452DF2CFB401C5010E94730E5FCD64
:10306000C4ACD5AC4601B9E08B0E911CB801645FCD
:103070007F4FC4010E94730EB82EC8010E946205E2
:103080008230B9F4D80150968C9150971C969C913F
:103090001C9799831D969C911D979A831E969C91CF
:1030A0009B838C83BE016F5F7F4FC4010E94730EB0
:1030B000B822BB2009F433CDC6010E94AE024BC03A
:1030C000D8018C918B3060F195EF592E580E580134
:1030D000FCE0AF0EB11C4501370124E4620E711C07
:1030E000882D8A19851508F0CACCD40111964C9008
:1030F000D301ED91FC91D4018C9109958F3F61F042
:10310000F60160817181680F711D498241E050E0D4
:10311000CE0101960E94F622F2E08F0E911CE0CFC4
:10312000512CD5CFF701C4ACD5AC313019F4F60130
:10313000348711C0313020F4D6011C961C920BC08C
:10314000323031F4D6011C968C918111F4CCE7CC4D
:10315000333009F0F0CC21E0EFCC8AE0D8018C9339
:1031600082E013968C93139712961C9212971A96DC
:103170001C920DC0223009F011CD8AE0F801808345
:103180002383128280E88287A8014C5F5F4FB801D9
:10319000C7010E94501202CD8D2DE4960FB6F8940F
:1031A000DEBF0FBECDBFDF91CF911F910F91FF907A
:1031B000EF90DF90CF90BF90AF909F908F907F90D7
:1031C0006F905F904F903F902F900895009769F017
:1031D000FC0101900020E9F73197AF01481B590B22
:1031E000BC0187EC92E00C94380880E090E00895F0
:1031F0008F929F92AF92BF920F931F93CF93DF93C3
:10320000CDB7DEB7A1970FB6F894DEBF0FBECDBF26
:1032100019A2423008F44AE08E010F5D1F4F842E40
:10322000912CA12CB12CA50194010E944023E62FE2
:10323000B901CA0101501109EA3014F4E05D01C07E
:10324000E95CD801EC93232B242B252B61F7C801D3
:103250000E94E618A1960FB6F894DEBF0FBECDBF50
:10326000DF91CF911F910F91BF90AF909F908F9062
:103270000895E091C702F091C8020190F081E02D1D
:10328000682F87EC92E009940F931F93CF93DF93FD
:103290008C01C0E0D0E0F801EC0FFD1F64916623C3
:1032A00071F0E091C702F091C8020190F081E02D29
:1032B00087EC92E00995892B11F02196ECCFCE0195
:1032C000DF91CF911F910F910895CF93C0E080E7D8
:1032D00093E00E941106009769F0029759F0DC0113
:1032E000ED91FC910190F081E02D6EE673E009957F
:1032F000C1E0EDCF8C2FCF910895AF92BF92DF92B6
:10330000EF92FF920F931F93CF93DF938C01DFB661
:10331000F8948EE693E00E948D05009719F0EC0179
:10332000229702C0C0E0D0E08EE6E82E83E0F82EBF
:10333000209781F1CE0102965C01C017D107F1F40C
:10334000C7010E941106C5010E948D05009709F46E
:103350004EC0FC01329709F44AC04D815E816F81F5
:10336000788585819681A781B085840F951FA61FDA
:10337000B71F85839683A783B08739C07C01C501B9
:103380000E948D05009719F0EC012297D1CFC0E083
:10339000D0E0CECF580192E0A90EB11CFFB6F89450
:1033A000EFB6F89480E793E00E948D05EC0120E7EA
:1033B00033E0209781F0CA15DB0511F4890102C0C2
:1033C00000E010E0CE010E948D059E01011511055F
:1033D00021F4EC01EECF00E010E0EFBE0115110585
:1033E00011F4FFBE04C0C8010E941106FACFDFBE6F
:1033F000DF91CF911F910F91FF90EF90DF90BF90E1
:10340000AF9008951F93CF93DF931F92CDB7DEB790
:10341000162F0E9417038F3F81F02091C603309131
:10342000C703B901680F711D198341E050E0CE0157
:1034300001960E94F62281E001C080E00F90DF91AA
:10344000CF911F910895CF93DF93EC01862F0E94B7
:1034500017038F3F51F028813981A901480F511D71
:10346000CA01DF91CF910C949F0D80E0DF91CF9145
:103470000895CF93DF93EC01862F0E94E4028F3FE3
:1034800051F028813981A901480F511DCA01DF91EE
:10349000CF910C949F0D80E0DF91CF910895CF9351
:1034A00080914804811116C0CFEF86E30E94310D50
:1034B000C150807731F08AE18A95F1F700C0C111DF
:1034C000F4CF8AE30E94310D89E30E94310D81E03F
:1034D00080934804CF910895FF920F931F93CF9349
:1034E000DF931F92CDB7DEB7082FF62E49830E94D7
:1034F0002D0D0E94270D802F0E941D0D8F2D0E94E3
:103500001D0D0E94230D60E8802F0E944F0D182F83
:1035100049818F1569F1442361F041506F2D802F4F
:103520000E946C1A8FEC97E00197F1F700C0000041
:103530001FC08AE692E00E940D02802F0E9484063E
:1035400084E792E00E940D028F2D0E94840680E89D
:1035500092E00E940D02812F0E94840688E892E08A
:103560000F90DF91CF911F910F91FF900C940F025C
:103570000F90DF91CF911F910F91FF900895FC0163
:1035800011860895EF92FF921F93CF93DF931F92BE
:10359000CDB7DEB77C0161E0DC0151968C910E94D1
:1035A000620A60E0F70181890E94320A60E0D70177
:1035B00050968C910E94320AF70180890E949E0ADF
:1035C0008FE99FE00197F1F700C00000D701509606
:1035D0008C910E949E0AFC01D70152962C9130E0FA
:1035E000A4EEBCE00E9462239B01AC01DF010E94BB
:1035F000382320E030EA4FE050E00E944023122FB1
:1036000061E0F701808939830E94320A60E0D701C6
:1036100051968C910E94620A8EE992E00E940F02FC
:10362000812F3981932F0E941102812F0F90DF91FA
:10363000CF911F91FF90EF900895CF93DF93CDB777
:10364000DEB72E970FB6F894DEBF0FBECDBF7894CD
:1036500084B5826084BD84B5816084BD85B5826097
:1036600085BD85B5816085BD80916E008160809348
:103670006E001092810080918100826080938100B1
:1036800080918100816080938100809180008160C1
:10369000809380008091B10084608093B10080911C
:1036A000B00081608093B00080917A008460809344
:1036B0007A0080917A00826080937A0080917A000B
:1036C0008E7F80937A0080917A00806880937A0060
:1036D0001092C100E091D702F091D80282E080837D
:1036E000E091D302F091D4021082E091D502F091E2
:1036F000D60280E180831092DF02E091DB02F0913C
:10370000DC0286E08083E091D902F091DA028081C8
:1037100080618083E091D902F091DA028081886033
:103720008083E091D902F091DA0280818068808301
:10373000E091D902F091DA0280818F7D80838EE75B
:1037400091E00E94C2111D861C861B866E010BE053
:10375000C00ED11CC6010E94700DCE0101960E94C0
:103760006B0D8AE192E00E940D028E010F5F1F4FE8
:10377000F80181918F010E9439190C151D05C1F7BF
:1037800088E292E00E940D026B85862F90E0A0E017
:10379000B0E0DC01992788272D85AC01BD01422BC3
:1037A0008C8590E0982F8827A0E0B0E08A019B01EB
:1037B000082B192B2A2B3B2BC901B8014AE00E9488
:1037C000F8188BE292E00E940D0283ED90E00E94D7
:1037D0000F02E090C603F090C70317E0E10EF11C62
:1037E000E0E00CE813E08091C503E81710F5992498
:1037F00093949E0EF0E0EE0FFF1FE853FC4FA08065
:10380000B18060E08EE00E94620A61E085E00E9483
:10381000620AF501128701879586F786E686B5016B
:103820008EE693E00E94B00BF8E2EF0EF11CE92D5A
:10383000DACF0091C8031091C9038DE292E00E9493
:103840000D026091C1037091C20380E090E04AE0F4
:103850000E94F8188DE392E00E940D02F80186851F
:10386000978588960E94110260E080E090E00E94B7
:1038700025037C0101E311E077E0B72EB00EF801DB
:103880006491C7010E9425037C010F5F1F4FB01296
:10389000F6CF01E08091C503801768F1A090C803BE
:1038A000B090C90310E0812F0E94220F682FC7013A
:1038B0000E9425037C011F5F1430A9F7B501675FE3
:1038C0007F4F40E0CE0101960E94FF1080E00E94F1
:1038D000200F682FC7010E9425037C0180E00E9411
:1038E000180F682FC7010E94250366E00E94250378
:1038F0007C010F5FCFCF44E050E060E070E0C60194
:103900000E94E622C701A0E0B0E08C019D012E6F6D
:103910003A6C09831A832B833C836B857C858D8568
:103920009E85061717072807390709F449C00E9422
:10393000340680E291E00E940F0282E291E00E9450
:103940000F0269817A818B819C810E94340680E21A
:1039500091E00E940F0244E050E060E070E0CE0190
:1039600001960E94F622E090C603F090C70300E0A3
:1039700010E01982B8016E0D7F1D41E050E0CE01CC
:1039800001960E94F6220F5F1F4F0730110589F73D
:1039900060E081E00E94021A66E182E10E94021A60
:1039A00060E081E20E94021A882321F06EE182E247
:1039B0000E94021A10E08091C503181708F46AC02B
:1039C0008FE094E090938F0380938E031B821A8282
:1039D0001982CE0101960E94700D89819A810E9400
:1039E000762284E08093240461E00E94620A81E1EF
:1039F00094E00E941910E8988BE699E090930101F9
:103A00008093000189E394E0909389028093880277
:103A100088E191E00E940F0261E08AE00E94620A60
:103A200061E08BE00E94620A60E08CE00E94620A22
:103A300061E08DE00E94620A80E58CBD61E08AE071
:103A40000E94320A61E08DE00E94320A60E08BE061
:103A50000E94320A60E082E00E94620A86E191E000
:103A60000E94C2110E942D0D0E94270D0E94230D5D
:103A7000F5E8FA95F1F700000E942D0D0E94270D40
:103A800080E30E941D0D0E94270D0E94230D0EED64
:103A900010E036C0E12FF0E0EE0FFF1FE853FC4FBF
:103AA000E080F18068E270E0F701868597850E94EA
:103AB000750DF701868597859A83898364E070E0A8
:103AC0000E94750D43E063E2CE0101960E94F2026E
:103AD000882331F04EE364E2CE0101960E94F202A7
:103AE00041E065E2CE0101960E94F202882331F0A6
:103AF00044EA66E2CE0101960E94F2021F5F5BCFAC
:103B0000F80131966491F801849143E00E946C1AA7
:103B10000E5F1F4FF1E006311F0791F781E492E03D
:103B20000E940D0260EC81E30E944F0D0E9484060A
:103B300088E892E00E940F0283E30E94310D8FEA31
:103B400093EB0197F1F700C0000043E060EC8EE3D7
:103B50000E946C1A85ED90E00E94C21186E39FE0FE
:103B60009093010180930001809169008C7F8260B5
:103B700080936900E89A80E1809381001092800030
:103B8000109285001092840080E49CE99093870055
:103B90008093860081E1809381000E94990D66E008
:103BA00070E080E194E00E948B110E9471226CEA27
:103BB0007DE00E94AF248C0108511C4F89E394E002
:103BC0000E947D199801A4E6B0E00E94622328EECD
:103BD00033E040E050E00E94402320933E043093C5
:103BE0003F04409340045093410481E08093420499
:103BF00069E374E08EE693E00E94B00B89E3809362
:103C0000380460E0809136040E94620A60E080918E
:103C100037040E94620AE0912604F091270406808E
:103C2000F781E02D86E294E0099580932F0480E8E7
:103C300095EDA4E0B0E08093300490933104A0931C
:103C40003204B093330480932B0490932C04A093FC
:103C50002D04B0932E0466E274E08EE693E00E9499
:103C6000B00B86E18093340482E18093350488E0D0
:103C700080937C0362E00E94620AE2E7F1E08491B3
:103C8000EEE5F1E09491923059F42091BA02282B9C
:103C90002093BA022091B702282B2093B70219C0B3
:103CA000933059F42091B902282B2093B902209126
:103CB000B602282B2093B6020CC0943051F4209108
:103CC000B802282B2093B8022091B502282B20930C
:103CD000B502EAE4F1E0A4919230D1F4B0E0AA0F89
:103CE000BB1FA755BD4F2DE831E02D933C93ECE36E
:103CF000F1E0A591B4919C919093A8022BE630E05D
:103D00003093BC022093BB0290916800916037C051
:103D10009330D1F4B0E0AA0FBB1FA456BD4F2DE8DD
:103D200031E02D933C93EEE3F1E0A591B4919C91A9
:103D300090939B022CE630E03093BC022093BB02B0
:103D40009091680092601BC09430D9F4B0E0AA0F43
:103D5000BB1FA557BD4F2DE831E02D933C93E0E408
:103D6000F1E0A591B4919C9190938A022DE630E008
:103D70003093BC022093BB029091680094609093B2
:103D80006800A091BB02B091BC02EC918E2B8C9389
:103D9000E0918C03F0918D030480F581E02D8CE897
:103DA00093E0099511E08091C503811740F080915F
:103DB000C8039091C9030E94AE021F5FF4CF1EE0BA
:103DC0000E946519F82E811103C00E946519F82E12
:103DD00080918E0390918F0367E973E08A960E9429
:103DE00059108B3070F0E0918C03F0918D030680B8
:103DF000F781E02D67E973E08CE893E00995982F4F
:103E000001C090E0EE24E39400E1B02E82E2A82EFF
:103E100026E0922E8091C5038E15E0F1C090C80374
:103E2000D090C903F6018385882391F10091920314
:103E30000F5F009392036091900370919103CE0104
:103E400001960E941411E0918E03F0918F0385A9D1
:103E5000F601958510939703B0929A03A092990367
:103E60009092A103009398039093A2031092A3034E
:103E70001092A4038093A503AE014F5F5F4F67E9E3
:103E800073E08CE893E00E945012F601138691E0F3
:103E9000E394C0CFF1109CC191119AC190912F046D
:103EA00080913504981768F40E944F1A20E030E0A2
:103EB00040E050E06AE070E08DEB92E00E94640B1D
:103EC000F5CF80917C04811172C187EC92E00E9451
:103ED00016098091C00085FD06C08091C0008064F5
:103EE0008093C000F6CF8091C00086FFFCCF809108
:103EF0006F008E7F80936F008EE693E00E948D05A9
:103F0000009741F0FC01329729F0C580D680E78008
:103F1000F08403C0C12CD12C760180E793E00E948D
:103F20008D05892B09F040C1F1E0CF16D104E104E1
:103F3000F10409F4D4C00E944F1A01E2C01603E054
:103F4000D006E104F10408F047C021E9C21621E0DF
:103F5000D206E104F10408F048C039ECC316D104DC
:103F6000E104F10408F04AC085E6C816D104E10472
:103F7000F10408F04BC093E3C916D104E104F10445
:103F800008F04CC0EAE1CE16D104E104F10408F0D7
:103F90004DC0FDE0CF16D104E104F10408F04EC09D
:103FA00007E0C016D104E104F10408F04FC024E09A
:103FB000C216D104E104F10408F050C032E0C31687
:103FC000D104E104F10408F451C060E070E0C12CB8
:103FD000D12C7601C3944FC069E070E0A0E2CA2EF4
:103FE000A3E0DA2EE12CF12C46C068E070E0F0E9A5
:103FF000CF2EDD24D394E12CF12C3DC067E070E09E
:10400000E8ECCE2ED12CE12CF12C35C066E070E02E
:1040100054E6C52ED12CE12CF12C2DC065E070E0CA
:1040200042E3C42ED12CE12CF12C25C064E070E0D9
:1040300039E1C32ED12CE12CF12C1DC063E070E0DE
:104040002CE0C22ED12CE12CF12C15C062E070E0E6
:1040500096E0C92ED12CE12CF12C0DC061E070E06E
:1040600083E0C82ED12CE12CF12C05C06AE070E071
:10407000C12CD12C760120E030E040E050E08DEB07
:1040800092E00E94640B81E0C81AD108E108F108AF
:104090008EE693E00E948D050097E1F0FC013297D7
:1040A000C9F085819681A781B085AC01BD014150E1
:1040B0005109610971094C155D056E057F0510F404
:1040C0006A017B018C199D09AE09BF09858396831E
:1040D000A783B0878EE693E00E94350C65C00E94EE
:1040E000990D8091B10081FF02C084E001C080E0A1
:1040F0009091B10090FD82609091B1009091B100DB
:104100009B7F9093B1009091B1009D7F9093B100FF
:104110009091B1009E7F9093B10090916400906463
:104120009093640090917A009F7790937A00909199
:104130006400916090936400909164009062909309
:1041400064009091640090689093640093B7917FAD
:1041500093BFF89493B7916093BF7894889593B781
:104160009E7F93BF7894909164009E7F90936400AB
:1041700090917A00906890937A0081FF05C08091B9
:10418000B10084608093B100809164008F7B809344
:104190006400809164008F7D80936400809164004E
:1041A0008F778093640014C00E94990D11C0809194
:1041B0004804882369F00E942D0D0E94270D0E945B
:1041C000230D0E94460D84E30E94310D1092480495
:1041D0000E943809F5CD82E793E00E94110F8CE828
:1041E00093E00C94C9010F931F93CF93DF93E7ECF7
:1041F000F2E01382128288EE93E0A0E0B0E08483C4
:104200009583A683B78386E191E09183808385ECD3
:1042100090E09587848784EC90E09787868780EC90
:1042200090E0918B808B81EC90E0938B828B82EC81
:1042300090E0958B848B86EC90E0978B868B118E2B
:10424000128E138E148EE4E6F3E012821182108235
:10425000EEE6F3E01182108213821282E9E6F3E0C7
:1042600011821082138212821482109268031092BB
:104270006703EFE0F4E0F0937E04E0937D041582A1
:104280001482178210861186128680E891E093834B
:104290008283138A148A158A168A11E01683128E75
:1042A000118E138E148E158E168E178E10A211A2DB
:1042B00012A213A214A215A216A286E991E0908F71
:1042C000878B81E187A386E080A789E381A715A674
:1042D00014A617A610AA11AA12AA82EA91E093A71F
:1042E00082A713AA16A715AA16AA17AA10AE11AE6E
:1042F00089E494E00E944A031092760410927504B7
:10430000109278041092790410927A0410927B042F
:104310008CEA91E0909374048093730410927C046F
:1043200010937704CCE8D3E086E491E09983888306
:104330001B821A8286EC93E09D838C831E821986F1
:1043400018861F821A8687E993E00E944A0380E25A
:1043500090E09EAB8DAB2AE832E038AF2FAB19AFBF
:104360009BAF8AAF8FEF8093CA031092CC03109259
:10437000CB031092CD031092CF031092CE03109274
:10438000D1031092D00388E691E09983888310923C
:10439000DC031092DB031092DD031092DE03109217
:1043A000DF031092E1031092E0031092D503109204
:1043B000D4031092D6031092D7031092D803109210
:1043C000D9031092DA0302ED13E08EE591E0F801D3
:1043D0009183808382EE93E00E944A0310920D0441
:1043E00010920C041DAF0CAF84E791E09983888391
:1043F000E2E7F3E01382128214821582168217829A
:104400001086ABE7B3E08C91887F816088608C93E5
:104410001286108A1786118A128A138A148A158ABC
:1044200088E291E096878587F78BE68B8AE391E0B7
:1044300091838083D18FC08F8CE291E094878387B2
:10444000DF91CF911F910F9108958F929F92AF921C
:10445000BF92CF92DF92EF92FF92CF93DF93EC0166
:10446000688179818A819B8161157105810591053A
:1044700021F464E279ED8BE597E02DE133EF41E043
:1044800050E00E940E2349015A019B01AC01A7EAAA
:10449000B1E40E942D236B017C01ACEEB4EFA501C9
:1044A00094010E943B23DC01CB018C0D9D1DAE1DB0
:1044B000BF1DB7FF03C00197A109B0488883998346
:1044C000AA83BB839F77DF91CF91FF90EF90DF901E
:1044D000CF90BF90AF909F908F9008950E9425221B
:1044E000089584E091E00E9425220895A0E0B0E0C4
:1044F0008093040190930501A0930601B0930701F6
:1045000008958F929F92AF92BF92CF92DF92EF92D7
:10451000FF92CF93DF93EC01688179818A819B813F
:10452000611571058105910521F464E279ED8BE552
:1045300097E02DE133EF41E050E00E940E23490166
:104540005A019B01AC01A7EAB1E40E942D236B0143
:104550007C01ACEEB4EFA50194010E943B23DC0189
:10456000CB018C0D9D1DAE1DBF1DB7FF03C0019774
:10457000A109B04888839983AA83BB83BC01CD017C
:104580009F77DF91CF91FF90EF90DF90CF90BF901A
:10459000AF909F908F9008950E948122089588E0A7
:1045A00091E00E94812208956093080170930901AF
:1045B00080930A0190930B010895FB01DC0102C076
:1045C00005900D9241505040D8F70895DC01CB0181
:1045D000FC01F999FECF06C0F2BDE1BDF89A319613
:1045E00000B40D9241505040B8F70895DC01CB0162
:1045F00003C02D910E94012341505040D0F70895EF
:10460000262FF999FECF1FBA92BD81BD20BD0FB6EE
:10461000F894FA9AF99A0FBE01960895052E97FB21
:104620001EF400940E94252357FD07D00E944023CA
:1046300007FC03D04EF40C942523509540953095FB
:1046400021953F4F4F4F5F4F0895909580957095FE
:1046500061957F4F8F4F9F4F08950E946223A59FC2
:10466000900DB49F900DA49F800D911D112408956D
:10467000B7FF0C942D230E942D23821B930B0895CA
:10468000A1E21A2EAA1BBB1BFD010DC0AA1FBB1F56
:10469000EE1FFF1FA217B307E407F50720F0A21BC8
:1046A000B30BE40BF50B661F771F881F991F1A9435
:1046B00069F760957095809590959B01AC01BD015F
:1046C000CF010895A29FB001B39FC001A39F700DB9
:1046D000811D1124911DB29F700D811D1124911D0A
:1046E00008950E94E52388F09F5798F0B92F9927E5
:1046F000B751B0F0E1F0660F771F881F991F1AF0CD
:10470000BA95C9F714C0B13091F00E94FF23B1E00F
:1047100008950C94FF23672F782F8827B85F39F00E
:10472000B93FCCF3869577956795B395D9F73EF465
:1047300090958095709561957F4F8F4F9F4F08950D
:10474000E89409C097FB3EF490958095709561952B
:104750007F4F8F4F9F4F9923A9F0F92F96E9BB27E1
:104760009395F695879577956795B795F111F8CF5D
:10477000FAF4BB0F11F460FF1BC06F5F7F4F8F4FC8
:104780009F4F16C0882311F096E911C0772321F0BE
:104790009EE8872F762F05C0662371F096E8862F56
:1047A00070E060E02AF09A95660F771F881FDAF7AD
:1047B000880F9695879597F9089557FD9058440F5F
:1047C000551F59F05F3F71F04795880F97FB991F70
:1047D00061F09F3F79F0879508951216130614062D
:1047E000551FF2CF4695F1DF08C0161617061806BA
:1047F000991FF1CF86957105610508940895E89495
:10480000BB2766277727CB0197F908950E941924C3
:104810000C948A240E947C2438F00E94832420F087
:10482000952311F00C9473240C94792411240C9486
:1048300000240E94DD2370F3959FC1F3950F50E093
:10484000551F629FF001729FBB27F00DB11D639F42
:10485000AA27F00DB11DAA1F649F6627B00DA11DE8
:10486000661F829F2227B00DA11D621F739FB00D8E
:10487000A11D621F839FA00D611D221F749F3327FE
:10488000A00D611D231F849F600D211D822F762F97
:104890006A2F11249F5750409AF0F1F088234AF074
:1048A000EE0FFF1FBB1F661F771F881F91505040E0
:1048B000A9F79E3F510580F00C9473240C940024BA
:1048C0005F3FE4F3983ED4F3869577956795B79567
:1048D000F795E7959F5FC1F7FE2B880F911D969581
:1048E000879597F9089597F99F6780E870E060E0F1
:1048F00008959FEF80EC089500240A941616170679
:1049000018060906089500240A94121613061406C0
:1049100005060895092E0394000C11F4882352F023
:10492000BB0F40F4BF2B11F460FF04C06F5F7F4FDB
:104930008F4F9F4F0895AA1BBB1B51E107C0AA1FB1
:10494000BB1FA617B70710F0A61BB70B881F991F30
:104950005A95A9F780959095BC01CD01089597FBD4
:10496000072E16F4009407D077FD09D00E949B24EF
:1049700007FC05D03EF4909581959F4F0895709562
:1049800061957F4F0895EE0FFF1F0590F491E02D84
:104990000994CF93DF938230910510F482E090E088
:1049A000E0918104F091820420E030E0C0E0D0E0AA
:1049B000309711F14081518148175907C0F04817CD
:1049C000590761F482819381209719F09B838A8330
:1049D0002BC0909382048093810426C02115310559
:1049E00019F04217530718F49A01BE01DF01EF01D5
:1049F0000280F381E02DDCCF2115310509F1281B60
:104A0000390B2430310590F412968D919C911397B7
:104A10006115710521F0FB019383828304C090939B
:104A2000820480938104FD01329644C0FD01E20FAF
:104A3000F31F81939193225031092D933C933AC0F7
:104A400020917F0430918004232B41F420910E01AA
:104A500030910F013093800420937F0420910C014A
:104A600030910D012115310541F42DB73EB740912C
:104A7000100150911101241B350BE0917F04F0913E
:104A80008004E217F307A0F42E1B3F0B2817390709
:104A900078F0AC014E5F5F4F2417350748F04E0F9A
:104AA0005F1F5093800440937F048193919302C0D1
:104AB000E0E0F0E0CF01DF91CF9108950F931F93D5
:104AC000CF93DF93009709F48CC0FC0132971382D7
:104AD000128200918104109182040115110581F464
:104AE00020813181820F931F20917F0430918004B7
:104AF0002817390779F5F0938004E0937F0471C09B
:104B0000D80140E050E0AE17BF0750F412962D9147
:104B10003C911397AD012115310509F1D901F3CF6E
:104B20009D01DA013383228360817181860F971F93
:104B30008217930769F4EC0128813981260F371F0A
:104B40002E5F3F4F318320838A819B8193838283B1
:104B5000452B29F4F0938204E093810442C013961C
:104B6000FC93EE931297ED01499159919E01240F08
:104B7000351FE217F30771F480819181840F951F2F
:104B8000029611969C938E938281938113969C93A7
:104B90008E931297E0E0F0E0D80112968D919C91EF
:104BA0001397009719F0F8018C01F6CF8D919C9125
:104BB00098012E5F3F4F820F931F20917F04309109
:104BC00080042817390769F4309729F41092820479
:104BD0001092810402C01382128210938004009309
:104BE0007F04DF91CF911F910F91089581E090E0B4
:104BF000F8940C941126FB01DC0104C08D91019006
:104C0000801921F441505040C8F7881B990B089532
:104C1000FB01DC0102C001900D9241505040D8F7D9
:104C2000089511E0C3E5D1E004C0FE010E94C32451
:0C4C30002196C435D107C9F7F894FFCFD6
:104C3C006B096B09010000000100000000008304F7
:104C4C00800000000000CF08380867081609980893
:104C5C0076088A0800000000A80F00000000640F0E
:104C6C0035110B10C81100000000640F110F071054
:104C7C00F5110000000013110910420F400F000045
:104C8C00000036110510420F2714000000007A03B3
:104C9C00E302870100000000430F0D10420F2714A0
:104CAC0000000000C901D0011B0227140000000005
:104CBC008A090C0285010000000097014803890154
:104CCC006E020000000097010B028301C21A000063
:104CDC000000BF1A0A028101000000007E01490396
:104CEC008B01000000006C092A4C4F5720424154A4
:104CFC00204C696D69743A20002A57616B652D4F01
:104D0C006E2D526164696F3A20002A53656E64659A
:104D1C00696E74657276616C6C3A2000436F6E66D6
:104D2C006967206368616E676564204C69737431D0
:104D3C00002A4849474856616C75653A20002A4C50
:104D4C004F5756616C75653A20004465766963650A
:104D5C0020496E666F3A20002028002900416464C7
:104D6C00726573732053706163653A2000202D20A7
:104D7C000043432056657273696F6E3A20004352AC
:104D8C0043204661696C6564005061636B657420F7
:104D9C00746F6F206269673A20004572726F7220DF
:104DAC00617420002065787065637465643A200036
:084DBC0020726561643A2000D9
:00000001FF
